
rv32si-p-ma_fetch:     file format elf32-littleriscv


Disassembly of section .text.init:

80000000 <_start>:
80000000:	04c0006f          	j	8000004c <reset_vector>

80000004 <trap_vector>:
80000004:	34202f73          	csrr	t5,mcause
80000008:	00800f93          	li	t6,8
8000000c:	03ff0a63          	beq	t5,t6,80000040 <write_tohost>
80000010:	00900f93          	li	t6,9
80000014:	03ff0663          	beq	t5,t6,80000040 <write_tohost>
80000018:	00b00f93          	li	t6,11
8000001c:	03ff0263          	beq	t5,t6,80000040 <write_tohost>
80000020:	80000f17          	auipc	t5,0x80000
80000024:	fe0f0f13          	addi	t5,t5,-32 # 0 <_start-0x80000000>
80000028:	000f0463          	beqz	t5,80000030 <trap_vector+0x2c>
8000002c:	000f0067          	jr	t5
80000030:	34202f73          	csrr	t5,mcause
80000034:	000f5463          	bgez	t5,8000003c <handle_exception>
80000038:	0040006f          	j	8000003c <handle_exception>

8000003c <handle_exception>:
8000003c:	5391e193          	ori	gp,gp,1337

80000040 <write_tohost>:
80000040:	00001f17          	auipc	t5,0x1
80000044:	fc3f2023          	sw	gp,-64(t5) # 80001000 <tohost>
80000048:	ff9ff06f          	j	80000040 <write_tohost>

8000004c <reset_vector>:
8000004c:	00000093          	li	ra,0
80000050:	00000113          	li	sp,0
80000054:	00000193          	li	gp,0
80000058:	00000213          	li	tp,0
8000005c:	00000293          	li	t0,0
80000060:	00000313          	li	t1,0
80000064:	00000393          	li	t2,0
80000068:	00000413          	li	s0,0
8000006c:	00000493          	li	s1,0
80000070:	00000513          	li	a0,0
80000074:	00000593          	li	a1,0
80000078:	00000613          	li	a2,0
8000007c:	00000693          	li	a3,0
80000080:	00000713          	li	a4,0
80000084:	00000793          	li	a5,0
80000088:	00000813          	li	a6,0
8000008c:	00000893          	li	a7,0
80000090:	00000913          	li	s2,0
80000094:	00000993          	li	s3,0
80000098:	00000a13          	li	s4,0
8000009c:	00000a93          	li	s5,0
800000a0:	00000b13          	li	s6,0
800000a4:	00000b93          	li	s7,0
800000a8:	00000c13          	li	s8,0
800000ac:	00000c93          	li	s9,0
800000b0:	00000d13          	li	s10,0
800000b4:	00000d93          	li	s11,0
800000b8:	00000e13          	li	t3,0
800000bc:	00000e93          	li	t4,0
800000c0:	00000f13          	li	t5,0
800000c4:	00000f93          	li	t6,0
800000c8:	f1402573          	csrr	a0,mhartid
800000cc:	00051063          	bnez	a0,800000cc <reset_vector+0x80>
800000d0:	00000297          	auipc	t0,0x0
800000d4:	01028293          	addi	t0,t0,16 # 800000e0 <reset_vector+0x94>
800000d8:	30529073          	csrw	mtvec,t0
800000dc:	18005073          	csrwi	satp,0
800000e0:	00000297          	auipc	t0,0x0
800000e4:	02028293          	addi	t0,t0,32 # 80000100 <reset_vector+0xb4>
800000e8:	30529073          	csrw	mtvec,t0
800000ec:	800002b7          	lui	t0,0x80000
800000f0:	fff28293          	addi	t0,t0,-1 # 7fffffff <_end+0xffffdfff>
800000f4:	3b029073          	csrw	pmpaddr0,t0
800000f8:	01f00293          	li	t0,31
800000fc:	3a029073          	csrw	pmpcfg0,t0
80000100:	30405073          	csrwi	mie,0
80000104:	00000297          	auipc	t0,0x0
80000108:	01428293          	addi	t0,t0,20 # 80000118 <reset_vector+0xcc>
8000010c:	30529073          	csrw	mtvec,t0
80000110:	30205073          	csrwi	medeleg,0
80000114:	30305073          	csrwi	mideleg,0
80000118:	00000193          	li	gp,0
8000011c:	00000297          	auipc	t0,0x0
80000120:	ee828293          	addi	t0,t0,-280 # 80000004 <trap_vector>
80000124:	30529073          	csrw	mtvec,t0
80000128:	00100513          	li	a0,1
8000012c:	01f51513          	slli	a0,a0,0x1f
80000130:	00054c63          	bltz	a0,80000148 <reset_vector+0xfc>
80000134:	0ff0000f          	fence
80000138:	00100193          	li	gp,1
8000013c:	05d00893          	li	a7,93
80000140:	00000513          	li	a0,0
80000144:	00000073          	ecall
80000148:	00000297          	auipc	t0,0x0
8000014c:	11c28293          	addi	t0,t0,284 # 80000264 <stvec_handler>
80000150:	00028a63          	beqz	t0,80000164 <reset_vector+0x118>
80000154:	10529073          	csrw	stvec,t0
80000158:	0000b2b7          	lui	t0,0xb
8000015c:	10928293          	addi	t0,t0,265 # b109 <_start-0x7fff4ef7>
80000160:	30229073          	csrw	medeleg,t0
80000164:	30005073          	csrwi	mstatus,0
80000168:	00001537          	lui	a0,0x1
8000016c:	80050513          	addi	a0,a0,-2048 # 800 <_start-0x7ffff800>
80000170:	30052073          	csrs	mstatus,a0
80000174:	02200513          	li	a0,34
80000178:	30352073          	csrs	mideleg,a0
8000017c:	00000297          	auipc	t0,0x0
80000180:	01428293          	addi	t0,t0,20 # 80000190 <reset_vector+0x144>
80000184:	34129073          	csrw	mepc,t0
80000188:	f1402573          	csrr	a0,mhartid
8000018c:	30200073          	mret
80000190:	00200193          	li	gp,2
80000194:	00000313          	li	t1,0
80000198:	00000297          	auipc	t0,0x0
8000019c:	00c28293          	addi	t0,t0,12 # 800001a4 <reset_vector+0x158>
800001a0:	00228367          	jalr	t1,2(t0)
800001a4:	a011                	j	800001a8 <reset_vector+0x15c>
800001a6:	a019                	j	800001ac <reset_vector+0x160>
800001a8:	08c0006f          	j	80000234 <fail>
800001ac:	00300193          	li	gp,3
800001b0:	00000297          	auipc	t0,0x0
800001b4:	00c28293          	addi	t0,t0,12 # 800001bc <reset_vector+0x170>
800001b8:	00128367          	jalr	t1,1(t0)
800001bc:	0080006f          	j	800001c4 <reset_vector+0x178>
800001c0:	0740006f          	j	80000234 <fail>
800001c4:	00400193          	li	gp,4
800001c8:	00000313          	li	t1,0
800001cc:	00000297          	auipc	t0,0x0
800001d0:	00c28293          	addi	t0,t0,12 # 800001d8 <reset_vector+0x18c>
800001d4:	00328367          	jalr	t1,3(t0)
800001d8:	a011                	j	800001dc <reset_vector+0x190>
800001da:	a019                	j	800001e0 <reset_vector+0x194>
800001dc:	0580006f          	j	80000234 <fail>
800001e0:	00500193          	li	gp,5
800001e4:	00000313          	li	t1,0
800001e8:	00000297          	auipc	t0,0x0
800001ec:	00c28293          	addi	t0,t0,12 # 800001f4 <reset_vector+0x1a8>
800001f0:	0060036f          	jal	t1,800001f6 <reset_vector+0x1aa>
800001f4:	a011                	j	800001f8 <reset_vector+0x1ac>
800001f6:	a019                	j	800001fc <reset_vector+0x1b0>
800001f8:	03c0006f          	j	80000234 <fail>
800001fc:	00600193          	li	gp,6
80000200:	00000313          	li	t1,0
80000204:	00000297          	auipc	t0,0x0
80000208:	00c28293          	addi	t0,t0,12 # 80000210 <reset_vector+0x1c4>
8000020c:	00000363          	beqz	zero,80000212 <reset_vector+0x1c6>
80000210:	a011                	j	80000214 <reset_vector+0x1c8>
80000212:	a019                	j	80000218 <reset_vector+0x1cc>
80000214:	0200006f          	j	80000234 <fail>
80000218:	00700193          	li	gp,7
8000021c:	00001563          	bnez	zero,80000226 <reset_vector+0x1da>
80000220:	00c0006f          	j	8000022c <reset_vector+0x1e0>
80000224:	a009                	j	80000226 <reset_vector+0x1da>
80000226:	a009                	j	80000228 <reset_vector+0x1dc>
80000228:	00c0006f          	j	80000234 <fail>
8000022c:	0240006f          	j	80000250 <pass>
80000230:	02301063          	bne	zero,gp,80000250 <pass>

80000234 <fail>:
80000234:	0ff0000f          	fence
80000238:	00018063          	beqz	gp,80000238 <fail+0x4>
8000023c:	00119193          	slli	gp,gp,0x1
80000240:	0011e193          	ori	gp,gp,1
80000244:	05d00893          	li	a7,93
80000248:	00018513          	mv	a0,gp
8000024c:	00000073          	ecall

80000250 <pass>:
80000250:	0ff0000f          	fence
80000254:	00100193          	li	gp,1
80000258:	05d00893          	li	a7,93
8000025c:	00000513          	li	a0,0
80000260:	00000073          	ecall

80000264 <stvec_handler>:
80000264:	00200513          	li	a0,2
80000268:	02a18063          	beq	gp,a0,80000288 <stvec_handler+0x24>
8000026c:	00400513          	li	a0,4
80000270:	00a18c63          	beq	gp,a0,80000288 <stvec_handler+0x24>
80000274:	00500513          	li	a0,5
80000278:	00a18863          	beq	gp,a0,80000288 <stvec_handler+0x24>
8000027c:	00600513          	li	a0,6
80000280:	00a18463          	beq	gp,a0,80000288 <stvec_handler+0x24>
80000284:	fb1ff06f          	j	80000234 <fail>
80000288:	fa0316e3          	bnez	t1,80000234 <fail>
8000028c:	00000593          	li	a1,0
80000290:	14202573          	csrr	a0,scause
80000294:	fab510e3          	bne	a0,a1,80000234 <fail>
80000298:	141025f3          	csrr	a1,sepc
8000029c:	00458593          	addi	a1,a1,4
800002a0:	f8b29ae3          	bne	t0,a1,80000234 <fail>
800002a4:	14302573          	csrr	a0,sbadaddr
800002a8:	00050663          	beqz	a0,800002b4 <stvec_handler+0x50>
800002ac:	ffe50513          	addi	a0,a0,-2
800002b0:	f85512e3          	bne	a0,t0,80000234 <fail>
800002b4:	00c58593          	addi	a1,a1,12
800002b8:	14159073          	csrw	sepc,a1
800002bc:	10200073          	sret
800002c0:	c0001073          	unimp
