
rv32uf-v-fmin:     file format elf32-littleriscv


Disassembly of section .text.init:

80000000 <_start>:
80000000:	00c0006f          	j	8000000c <handle_reset>

80000004 <nmi_vector>:
80000004:	2780206f          	j	8000227c <wtf>

80000008 <trap_vector>:
80000008:	2740206f          	j	8000227c <wtf>

8000000c <handle_reset>:
8000000c:	00000093          	li	ra,0
80000010:	00000113          	li	sp,0
80000014:	00000193          	li	gp,0
80000018:	00000213          	li	tp,0
8000001c:	00000293          	li	t0,0
80000020:	00000313          	li	t1,0
80000024:	00000393          	li	t2,0
80000028:	00000413          	li	s0,0
8000002c:	00000493          	li	s1,0
80000030:	00000513          	li	a0,0
80000034:	00000593          	li	a1,0
80000038:	00000613          	li	a2,0
8000003c:	00000693          	li	a3,0
80000040:	00000713          	li	a4,0
80000044:	00000793          	li	a5,0
80000048:	00000813          	li	a6,0
8000004c:	00000893          	li	a7,0
80000050:	00000913          	li	s2,0
80000054:	00000993          	li	s3,0
80000058:	00000a13          	li	s4,0
8000005c:	00000a93          	li	s5,0
80000060:	00000b13          	li	s6,0
80000064:	00000b93          	li	s7,0
80000068:	00000c13          	li	s8,0
8000006c:	00000c93          	li	s9,0
80000070:	00000d13          	li	s10,0
80000074:	00000d93          	li	s11,0
80000078:	00000e13          	li	t3,0
8000007c:	00000e93          	li	t4,0
80000080:	00000f13          	li	t5,0
80000084:	00000f93          	li	t6,0
80000088:	00000297          	auipc	t0,0x0
8000008c:	f8028293          	addi	t0,t0,-128 # 80000008 <trap_vector>
80000090:	30529073          	csrw	mtvec,t0
80000094:	00008117          	auipc	sp,0x8
80000098:	2d410113          	addi	sp,sp,724 # 80008368 <_end+0xf70>
8000009c:	f14022f3          	csrr	t0,mhartid
800000a0:	00c29293          	slli	t0,t0,0xc
800000a4:	00510133          	add	sp,sp,t0
800000a8:	34011073          	csrw	mscratch,sp
800000ac:	3dd020ef          	jal	ra,80002c88 <extra_boot>
800000b0:	00003517          	auipc	a0,0x3
800000b4:	bdc50513          	addi	a0,a0,-1060 # 80002c8c <userstart>
800000b8:	1890206f          	j	80002a40 <vm_boot>

800000bc <pop_tf>:
800000bc:	08452283          	lw	t0,132(a0)
800000c0:	14129073          	csrw	sepc,t0
800000c4:	00452083          	lw	ra,4(a0)
800000c8:	00852103          	lw	sp,8(a0)
800000cc:	00c52183          	lw	gp,12(a0)
800000d0:	01052203          	lw	tp,16(a0)
800000d4:	01452283          	lw	t0,20(a0)
800000d8:	01852303          	lw	t1,24(a0)
800000dc:	01c52383          	lw	t2,28(a0)
800000e0:	02052403          	lw	s0,32(a0)
800000e4:	02452483          	lw	s1,36(a0)
800000e8:	02c52583          	lw	a1,44(a0)
800000ec:	03052603          	lw	a2,48(a0)
800000f0:	03452683          	lw	a3,52(a0)
800000f4:	03852703          	lw	a4,56(a0)
800000f8:	03c52783          	lw	a5,60(a0)
800000fc:	04052803          	lw	a6,64(a0)
80000100:	04452883          	lw	a7,68(a0)
80000104:	04852903          	lw	s2,72(a0)
80000108:	04c52983          	lw	s3,76(a0)
8000010c:	05052a03          	lw	s4,80(a0)
80000110:	05452a83          	lw	s5,84(a0)
80000114:	05852b03          	lw	s6,88(a0)
80000118:	05c52b83          	lw	s7,92(a0)
8000011c:	06052c03          	lw	s8,96(a0)
80000120:	06452c83          	lw	s9,100(a0)
80000124:	06852d03          	lw	s10,104(a0)
80000128:	06c52d83          	lw	s11,108(a0)
8000012c:	07052e03          	lw	t3,112(a0)
80000130:	07452e83          	lw	t4,116(a0)
80000134:	07852f03          	lw	t5,120(a0)
80000138:	07c52f83          	lw	t6,124(a0)
8000013c:	02852503          	lw	a0,40(a0)
80000140:	10200073          	sret

80000144 <trap_entry>:
80000144:	14011173          	csrrw	sp,sscratch,sp
80000148:	00112223          	sw	ra,4(sp)
8000014c:	00312623          	sw	gp,12(sp)
80000150:	00412823          	sw	tp,16(sp)
80000154:	00512a23          	sw	t0,20(sp)
80000158:	00612c23          	sw	t1,24(sp)
8000015c:	00712e23          	sw	t2,28(sp)
80000160:	02812023          	sw	s0,32(sp)
80000164:	02912223          	sw	s1,36(sp)
80000168:	02a12423          	sw	a0,40(sp)
8000016c:	02b12623          	sw	a1,44(sp)
80000170:	02c12823          	sw	a2,48(sp)
80000174:	02d12a23          	sw	a3,52(sp)
80000178:	02e12c23          	sw	a4,56(sp)
8000017c:	02f12e23          	sw	a5,60(sp)
80000180:	05012023          	sw	a6,64(sp)
80000184:	05112223          	sw	a7,68(sp)
80000188:	05212423          	sw	s2,72(sp)
8000018c:	05312623          	sw	s3,76(sp)
80000190:	05412823          	sw	s4,80(sp)
80000194:	05512a23          	sw	s5,84(sp)
80000198:	05612c23          	sw	s6,88(sp)
8000019c:	05712e23          	sw	s7,92(sp)
800001a0:	07812023          	sw	s8,96(sp)
800001a4:	07912223          	sw	s9,100(sp)
800001a8:	07a12423          	sw	s10,104(sp)
800001ac:	07b12623          	sw	s11,108(sp)
800001b0:	07c12823          	sw	t3,112(sp)
800001b4:	07d12a23          	sw	t4,116(sp)
800001b8:	07e12c23          	sw	t5,120(sp)
800001bc:	07f12e23          	sw	t6,124(sp)
800001c0:	140112f3          	csrrw	t0,sscratch,sp
800001c4:	00512423          	sw	t0,8(sp)
800001c8:	100022f3          	csrr	t0,sstatus
800001cc:	08512023          	sw	t0,128(sp)
800001d0:	141022f3          	csrr	t0,sepc
800001d4:	08512223          	sw	t0,132(sp)
800001d8:	143022f3          	csrr	t0,sbadaddr
800001dc:	08512423          	sw	t0,136(sp)
800001e0:	142022f3          	csrr	t0,scause
800001e4:	08512623          	sw	t0,140(sp)
800001e8:	00010513          	mv	a0,sp
800001ec:	48c0206f          	j	80002678 <handle_trap>

Disassembly of section .text:

80002000 <memcpy>:
80002000:	00c5e7b3          	or	a5,a1,a2
80002004:	00f567b3          	or	a5,a0,a5
80002008:	0037f793          	andi	a5,a5,3
8000200c:	00c506b3          	add	a3,a0,a2
80002010:	02078463          	beqz	a5,80002038 <memcpy+0x38>
80002014:	00c58633          	add	a2,a1,a2
80002018:	00050793          	mv	a5,a0
8000201c:	02d57e63          	bleu	a3,a0,80002058 <memcpy+0x58>
80002020:	00158593          	addi	a1,a1,1
80002024:	fff5c703          	lbu	a4,-1(a1)
80002028:	00178793          	addi	a5,a5,1
8000202c:	fee78fa3          	sb	a4,-1(a5)
80002030:	feb618e3          	bne	a2,a1,80002020 <memcpy+0x20>
80002034:	00008067          	ret
80002038:	fed57ee3          	bleu	a3,a0,80002034 <memcpy+0x34>
8000203c:	00050793          	mv	a5,a0
80002040:	00458593          	addi	a1,a1,4
80002044:	ffc5a703          	lw	a4,-4(a1)
80002048:	00478793          	addi	a5,a5,4
8000204c:	fee7ae23          	sw	a4,-4(a5)
80002050:	fed7e8e3          	bltu	a5,a3,80002040 <memcpy+0x40>
80002054:	00008067          	ret
80002058:	00008067          	ret

8000205c <memset>:
8000205c:	00c567b3          	or	a5,a0,a2
80002060:	0037f793          	andi	a5,a5,3
80002064:	00c50633          	add	a2,a0,a2
80002068:	02078063          	beqz	a5,80002088 <memset+0x2c>
8000206c:	0ff5f593          	andi	a1,a1,255
80002070:	00050793          	mv	a5,a0
80002074:	04c57063          	bleu	a2,a0,800020b4 <memset+0x58>
80002078:	00178793          	addi	a5,a5,1
8000207c:	feb78fa3          	sb	a1,-1(a5)
80002080:	fef61ce3          	bne	a2,a5,80002078 <memset+0x1c>
80002084:	00008067          	ret
80002088:	0ff5f593          	andi	a1,a1,255
8000208c:	00859793          	slli	a5,a1,0x8
80002090:	00b7e7b3          	or	a5,a5,a1
80002094:	01079593          	slli	a1,a5,0x10
80002098:	00f5e5b3          	or	a1,a1,a5
8000209c:	fec574e3          	bleu	a2,a0,80002084 <memset+0x28>
800020a0:	00050793          	mv	a5,a0
800020a4:	00478793          	addi	a5,a5,4
800020a8:	feb7ae23          	sw	a1,-4(a5)
800020ac:	fec7ece3          	bltu	a5,a2,800020a4 <memset+0x48>
800020b0:	00008067          	ret
800020b4:	00008067          	ret

800020b8 <strlen>:
800020b8:	00054783          	lbu	a5,0(a0)
800020bc:	00050713          	mv	a4,a0
800020c0:	00078c63          	beqz	a5,800020d8 <strlen+0x20>
800020c4:	00150513          	addi	a0,a0,1
800020c8:	00054783          	lbu	a5,0(a0)
800020cc:	fe079ce3          	bnez	a5,800020c4 <strlen+0xc>
800020d0:	40e50533          	sub	a0,a0,a4
800020d4:	00008067          	ret
800020d8:	00000513          	li	a0,0
800020dc:	00008067          	ret

800020e0 <strcmp>:
800020e0:	00150513          	addi	a0,a0,1
800020e4:	fff54783          	lbu	a5,-1(a0)
800020e8:	00158593          	addi	a1,a1,1
800020ec:	fff5c703          	lbu	a4,-1(a1)
800020f0:	00078863          	beqz	a5,80002100 <strcmp+0x20>
800020f4:	fee786e3          	beq	a5,a4,800020e0 <strcmp>
800020f8:	40e78533          	sub	a0,a5,a4
800020fc:	00008067          	ret
80002100:	00000793          	li	a5,0
80002104:	ff5ff06f          	j	800020f8 <strcmp+0x18>

80002108 <memcmp>:
80002108:	00b567b3          	or	a5,a0,a1
8000210c:	0037f793          	andi	a5,a5,3
80002110:	04079263          	bnez	a5,80002154 <memcmp+0x4c>
80002114:	ffc67693          	andi	a3,a2,-4
80002118:	00d506b3          	add	a3,a0,a3
8000211c:	00050813          	mv	a6,a0
80002120:	02d57a63          	bleu	a3,a0,80002154 <memcmp+0x4c>
80002124:	00052703          	lw	a4,0(a0)
80002128:	0005a783          	lw	a5,0(a1)
8000212c:	00f70a63          	beq	a4,a5,80002140 <memcmp+0x38>
80002130:	0240006f          	j	80002154 <memcmp+0x4c>
80002134:	00052703          	lw	a4,0(a0)
80002138:	0005a783          	lw	a5,0(a1)
8000213c:	00f71863          	bne	a4,a5,8000214c <memcmp+0x44>
80002140:	00450513          	addi	a0,a0,4
80002144:	00458593          	addi	a1,a1,4
80002148:	fed566e3          	bltu	a0,a3,80002134 <memcmp+0x2c>
8000214c:	41050833          	sub	a6,a0,a6
80002150:	41060633          	sub	a2,a2,a6
80002154:	00c58633          	add	a2,a1,a2
80002158:	0140006f          	j	8000216c <memcmp+0x64>
8000215c:	00158593          	addi	a1,a1,1
80002160:	fff54783          	lbu	a5,-1(a0)
80002164:	fff5c703          	lbu	a4,-1(a1)
80002168:	00e79a63          	bne	a5,a4,8000217c <memcmp+0x74>
8000216c:	00150513          	addi	a0,a0,1
80002170:	fec596e3          	bne	a1,a2,8000215c <memcmp+0x54>
80002174:	00000513          	li	a0,0
80002178:	00008067          	ret
8000217c:	40e78533          	sub	a0,a5,a4
80002180:	00008067          	ret

80002184 <strcpy>:
80002184:	00050793          	mv	a5,a0
80002188:	00158593          	addi	a1,a1,1
8000218c:	fff5c703          	lbu	a4,-1(a1)
80002190:	00178793          	addi	a5,a5,1
80002194:	fee78fa3          	sb	a4,-1(a5)
80002198:	fe0718e3          	bnez	a4,80002188 <strcpy+0x4>
8000219c:	00008067          	ret

800021a0 <atol>:
800021a0:	00054783          	lbu	a5,0(a0)
800021a4:	02000713          	li	a4,32
800021a8:	00e79863          	bne	a5,a4,800021b8 <atol+0x18>
800021ac:	00150513          	addi	a0,a0,1
800021b0:	00054783          	lbu	a5,0(a0)
800021b4:	fee78ce3          	beq	a5,a4,800021ac <atol+0xc>
800021b8:	fd578713          	addi	a4,a5,-43
800021bc:	0fd77713          	andi	a4,a4,253
800021c0:	04070263          	beqz	a4,80002204 <atol+0x64>
800021c4:	00054683          	lbu	a3,0(a0)
800021c8:	00050793          	mv	a5,a0
800021cc:	00000613          	li	a2,0
800021d0:	04068863          	beqz	a3,80002220 <atol+0x80>
800021d4:	00000513          	li	a0,0
800021d8:	00178793          	addi	a5,a5,1
800021dc:	fd068593          	addi	a1,a3,-48
800021e0:	00251713          	slli	a4,a0,0x2
800021e4:	0007c683          	lbu	a3,0(a5)
800021e8:	00a70533          	add	a0,a4,a0
800021ec:	00151513          	slli	a0,a0,0x1
800021f0:	00a58533          	add	a0,a1,a0
800021f4:	fe0692e3          	bnez	a3,800021d8 <atol+0x38>
800021f8:	00060463          	beqz	a2,80002200 <atol+0x60>
800021fc:	40a00533          	neg	a0,a0
80002200:	00008067          	ret
80002204:	00154683          	lbu	a3,1(a0)
80002208:	fd378793          	addi	a5,a5,-45
8000220c:	0017b613          	seqz	a2,a5
80002210:	00150793          	addi	a5,a0,1
80002214:	fc0690e3          	bnez	a3,800021d4 <atol+0x34>
80002218:	00000513          	li	a0,0
8000221c:	fddff06f          	j	800021f8 <atol+0x58>
80002220:	00000513          	li	a0,0
80002224:	00008067          	ret

80002228 <terminate>:
80002228:	fffff697          	auipc	a3,0xfffff
8000222c:	dd868693          	addi	a3,a3,-552 # 80001000 <tohost>
80002230:	0006a703          	lw	a4,0(a3)
80002234:	0046a783          	lw	a5,4(a3)
80002238:	00050813          	mv	a6,a0
8000223c:	41f55893          	srai	a7,a0,0x1f
80002240:	00f76733          	or	a4,a4,a5
80002244:	02070663          	beqz	a4,80002270 <terminate+0x48>
80002248:	fffff617          	auipc	a2,0xfffff
8000224c:	df860613          	addi	a2,a2,-520 # 80001040 <fromhost>
80002250:	00000713          	li	a4,0
80002254:	00e62023          	sw	a4,0(a2)
80002258:	00000793          	li	a5,0
8000225c:	00f62223          	sw	a5,4(a2)
80002260:	0006a703          	lw	a4,0(a3)
80002264:	0046a783          	lw	a5,4(a3)
80002268:	00f76733          	or	a4,a4,a5
8000226c:	fe0712e3          	bnez	a4,80002250 <terminate+0x28>
80002270:	0106a023          	sw	a6,0(a3)
80002274:	0116a223          	sw	a7,4(a3)
80002278:	0000006f          	j	80002278 <terminate+0x50>

8000227c <wtf>:
8000227c:	ff010113          	addi	sp,sp,-16
80002280:	34900513          	li	a0,841
80002284:	00112623          	sw	ra,12(sp)
80002288:	fa1ff0ef          	jal	ra,80002228 <terminate>

8000228c <printhex>:
8000228c:	fe010113          	addi	sp,sp,-32
80002290:	01b10793          	addi	a5,sp,27
80002294:	00b10e93          	addi	t4,sp,11
80002298:	00900e13          	li	t3,9
8000229c:	00f57693          	andi	a3,a0,15
800022a0:	01c59313          	slli	t1,a1,0x1c
800022a4:	00455513          	srli	a0,a0,0x4
800022a8:	05700613          	li	a2,87
800022ac:	0ff6f713          	andi	a4,a3,255
800022b0:	00de6463          	bltu	t3,a3,800022b8 <printhex+0x2c>
800022b4:	03000613          	li	a2,48
800022b8:	00c70733          	add	a4,a4,a2
800022bc:	00e78023          	sb	a4,0(a5)
800022c0:	fff78793          	addi	a5,a5,-1
800022c4:	00a36533          	or	a0,t1,a0
800022c8:	0045d593          	srli	a1,a1,0x4
800022cc:	fdd798e3          	bne	a5,t4,8000229c <printhex+0x10>
800022d0:	00c14583          	lbu	a1,12(sp)
800022d4:	00010e23          	sb	zero,28(sp)
800022d8:	06058263          	beqz	a1,8000233c <printhex+0xb0>
800022dc:	00c10513          	addi	a0,sp,12
800022e0:	fffff697          	auipc	a3,0xfffff
800022e4:	d2068693          	addi	a3,a3,-736 # 80001000 <tohost>
800022e8:	fffff617          	auipc	a2,0xfffff
800022ec:	d5860613          	addi	a2,a2,-680 # 80001040 <fromhost>
800022f0:	0006a703          	lw	a4,0(a3)
800022f4:	0046a783          	lw	a5,4(a3)
800022f8:	00058813          	mv	a6,a1
800022fc:	00150513          	addi	a0,a0,1
80002300:	00f76733          	or	a4,a4,a5
80002304:	010108b7          	lui	a7,0x1010
80002308:	02070263          	beqz	a4,8000232c <printhex+0xa0>
8000230c:	00000713          	li	a4,0
80002310:	00e62023          	sw	a4,0(a2)
80002314:	00000793          	li	a5,0
80002318:	00f62223          	sw	a5,4(a2)
8000231c:	0006a703          	lw	a4,0(a3)
80002320:	0046a783          	lw	a5,4(a3)
80002324:	00f76733          	or	a4,a4,a5
80002328:	fe0712e3          	bnez	a4,8000230c <printhex+0x80>
8000232c:	00054583          	lbu	a1,0(a0)
80002330:	0106a023          	sw	a6,0(a3)
80002334:	0116a223          	sw	a7,4(a3)
80002338:	fa059ce3          	bnez	a1,800022f0 <printhex+0x64>
8000233c:	02010113          	addi	sp,sp,32
80002340:	00008067          	ret

80002344 <handle_fault>:
80002344:	ff010113          	addi	sp,sp,-16
80002348:	fffff6b7          	lui	a3,0xfffff
8000234c:	00112623          	sw	ra,12(sp)
80002350:	00812423          	sw	s0,8(sp)
80002354:	00912223          	sw	s1,4(sp)
80002358:	00d50733          	add	a4,a0,a3
8000235c:	0003e7b7          	lui	a5,0x3e
80002360:	16f77263          	bleu	a5,a4,800024c4 <handle_fault+0x180>
80002364:	00c55613          	srli	a2,a0,0xc
80002368:	40060e13          	addi	t3,a2,1024
8000236c:	00003317          	auipc	t1,0x3
80002370:	c9430313          	addi	t1,t1,-876 # 80005000 <pt>
80002374:	002e1793          	slli	a5,t3,0x2
80002378:	00f307b3          	add	a5,t1,a5
8000237c:	0007a703          	lw	a4,0(a5) # 3e000 <_start-0x7ffc2000>
80002380:	00d57533          	and	a0,a0,a3
80002384:	0e071863          	bnez	a4,80002474 <handle_fault+0x130>
80002388:	00005797          	auipc	a5,0x5
8000238c:	06c78793          	addi	a5,a5,108 # 800073f4 <freelist_head>
80002390:	0007a583          	lw	a1,0(a5)
80002394:	1a058063          	beqz	a1,80002534 <handle_fault+0x1f0>
80002398:	0045a783          	lw	a5,4(a1)
8000239c:	00005717          	auipc	a4,0x5
800023a0:	05470713          	addi	a4,a4,84 # 800073f0 <freelist_tail>
800023a4:	00072703          	lw	a4,0(a4)
800023a8:	00005697          	auipc	a3,0x5
800023ac:	04f6a623          	sw	a5,76(a3) # 800073f4 <freelist_head>
800023b0:	10e78463          	beq	a5,a4,800024b8 <handle_fault+0x174>
800023b4:	0005a703          	lw	a4,0(a1)
800023b8:	002e1793          	slli	a5,t3,0x2
800023bc:	00f307b3          	add	a5,t1,a5
800023c0:	00c75713          	srli	a4,a4,0xc
800023c4:	00a71713          	slli	a4,a4,0xa
800023c8:	0df76e93          	ori	t4,a4,223
800023cc:	01f76693          	ori	a3,a4,31
800023d0:	01d7a023          	sw	t4,0(a5)
800023d4:	12050073          	sfence.vma	a0
800023d8:	00005717          	auipc	a4,0x5
800023dc:	e2070713          	addi	a4,a4,-480 # 800071f8 <user_mapping>
800023e0:	00361793          	slli	a5,a2,0x3
800023e4:	00f707b3          	add	a5,a4,a5
800023e8:	0007a703          	lw	a4,0(a5)
800023ec:	1a071a63          	bnez	a4,800025a0 <handle_fault+0x25c>
800023f0:	0005a703          	lw	a4,0(a1)
800023f4:	00e7a023          	sw	a4,0(a5)
800023f8:	0045a703          	lw	a4,4(a1)
800023fc:	00e7a223          	sw	a4,4(a5)
80002400:	000407b7          	lui	a5,0x40
80002404:	1007a5f3          	csrrs	a1,sstatus,a5
80002408:	ffc007b7          	lui	a5,0xffc00
8000240c:	00f507b3          	add	a5,a0,a5
80002410:	00001637          	lui	a2,0x1
80002414:	00050713          	mv	a4,a0
80002418:	00c78633          	add	a2,a5,a2
8000241c:	0007af03          	lw	t5,0(a5) # ffc00000 <_end+0x7fbf8c08>
80002420:	0047ae83          	lw	t4,4(a5)
80002424:	0087a883          	lw	a7,8(a5)
80002428:	00c7a803          	lw	a6,12(a5)
8000242c:	01e72023          	sw	t5,0(a4)
80002430:	01d72223          	sw	t4,4(a4)
80002434:	01172423          	sw	a7,8(a4)
80002438:	01072623          	sw	a6,12(a4)
8000243c:	01078793          	addi	a5,a5,16
80002440:	01070713          	addi	a4,a4,16
80002444:	fcc79ce3          	bne	a5,a2,8000241c <handle_fault+0xd8>
80002448:	10059073          	csrw	sstatus,a1
8000244c:	002e1e13          	slli	t3,t3,0x2
80002450:	01c30333          	add	t1,t1,t3
80002454:	00d32023          	sw	a3,0(t1)
80002458:	12050073          	sfence.vma	a0
8000245c:	0000100f          	fence.i
80002460:	00c12083          	lw	ra,12(sp)
80002464:	00812403          	lw	s0,8(sp)
80002468:	00412483          	lw	s1,4(sp)
8000246c:	01010113          	addi	sp,sp,16
80002470:	00008067          	ret
80002474:	04077693          	andi	a3,a4,64
80002478:	02069263          	bnez	a3,8000249c <handle_fault+0x158>
8000247c:	04076713          	ori	a4,a4,64
80002480:	00e7a023          	sw	a4,0(a5)
80002484:	12050073          	sfence.vma	a0
80002488:	00c12083          	lw	ra,12(sp)
8000248c:	00812403          	lw	s0,8(sp)
80002490:	00412483          	lw	s1,4(sp)
80002494:	01010113          	addi	sp,sp,16
80002498:	00008067          	ret
8000249c:	08077693          	andi	a3,a4,128
800024a0:	16069663          	bnez	a3,8000260c <handle_fault+0x2c8>
800024a4:	00f00693          	li	a3,15
800024a8:	16d59263          	bne	a1,a3,8000260c <handle_fault+0x2c8>
800024ac:	08076713          	ori	a4,a4,128
800024b0:	00e7a023          	sw	a4,0(a5)
800024b4:	fd1ff06f          	j	80002484 <handle_fault+0x140>
800024b8:	00005797          	auipc	a5,0x5
800024bc:	f207ac23          	sw	zero,-200(a5) # 800073f0 <freelist_tail>
800024c0:	ef5ff06f          	j	800023b4 <handle_fault+0x70>
800024c4:	04100513          	li	a0,65
800024c8:	00001597          	auipc	a1,0x1
800024cc:	b9058593          	addi	a1,a1,-1136 # 80003058 <pass+0xc>
800024d0:	fffff697          	auipc	a3,0xfffff
800024d4:	b3068693          	addi	a3,a3,-1232 # 80001000 <tohost>
800024d8:	fffff617          	auipc	a2,0xfffff
800024dc:	b6860613          	addi	a2,a2,-1176 # 80001040 <fromhost>
800024e0:	0006a703          	lw	a4,0(a3)
800024e4:	0046a783          	lw	a5,4(a3)
800024e8:	00050313          	mv	t1,a0
800024ec:	00158593          	addi	a1,a1,1
800024f0:	00f76733          	or	a4,a4,a5
800024f4:	010103b7          	lui	t2,0x1010
800024f8:	02070263          	beqz	a4,8000251c <handle_fault+0x1d8>
800024fc:	00000793          	li	a5,0
80002500:	00f62023          	sw	a5,0(a2)
80002504:	00000813          	li	a6,0
80002508:	01062223          	sw	a6,4(a2)
8000250c:	0006a703          	lw	a4,0(a3)
80002510:	0046a783          	lw	a5,4(a3)
80002514:	00f76733          	or	a4,a4,a5
80002518:	fe0712e3          	bnez	a4,800024fc <handle_fault+0x1b8>
8000251c:	0005c503          	lbu	a0,0(a1)
80002520:	0066a023          	sw	t1,0(a3)
80002524:	0076a223          	sw	t2,4(a3)
80002528:	fa051ce3          	bnez	a0,800024e0 <handle_fault+0x19c>
8000252c:	00300513          	li	a0,3
80002530:	cf9ff0ef          	jal	ra,80002228 <terminate>
80002534:	04100513          	li	a0,65
80002538:	00001597          	auipc	a1,0x1
8000253c:	bac58593          	addi	a1,a1,-1108 # 800030e4 <pass+0x98>
80002540:	fffff697          	auipc	a3,0xfffff
80002544:	ac068693          	addi	a3,a3,-1344 # 80001000 <tohost>
80002548:	fffff617          	auipc	a2,0xfffff
8000254c:	af860613          	addi	a2,a2,-1288 # 80001040 <fromhost>
80002550:	0006a703          	lw	a4,0(a3)
80002554:	0046a783          	lw	a5,4(a3)
80002558:	00050f13          	mv	t5,a0
8000255c:	00158593          	addi	a1,a1,1
80002560:	00f76733          	or	a4,a4,a5
80002564:	01010fb7          	lui	t6,0x1010
80002568:	02070263          	beqz	a4,8000258c <handle_fault+0x248>
8000256c:	00000793          	li	a5,0
80002570:	00f62023          	sw	a5,0(a2)
80002574:	00000813          	li	a6,0
80002578:	01062223          	sw	a6,4(a2)
8000257c:	0006a703          	lw	a4,0(a3)
80002580:	0046a783          	lw	a5,4(a3)
80002584:	00f76733          	or	a4,a4,a5
80002588:	fe0712e3          	bnez	a4,8000256c <handle_fault+0x228>
8000258c:	0005c503          	lbu	a0,0(a1)
80002590:	01e6a023          	sw	t5,0(a3)
80002594:	01f6a223          	sw	t6,4(a3)
80002598:	fa051ce3          	bnez	a0,80002550 <handle_fault+0x20c>
8000259c:	f91ff06f          	j	8000252c <handle_fault+0x1e8>
800025a0:	04100513          	li	a0,65
800025a4:	00001597          	auipc	a1,0x1
800025a8:	b5858593          	addi	a1,a1,-1192 # 800030fc <pass+0xb0>
800025ac:	fffff697          	auipc	a3,0xfffff
800025b0:	a5468693          	addi	a3,a3,-1452 # 80001000 <tohost>
800025b4:	fffff617          	auipc	a2,0xfffff
800025b8:	a8c60613          	addi	a2,a2,-1396 # 80001040 <fromhost>
800025bc:	0006a703          	lw	a4,0(a3)
800025c0:	0046a783          	lw	a5,4(a3)
800025c4:	00050813          	mv	a6,a0
800025c8:	00158593          	addi	a1,a1,1
800025cc:	00f76733          	or	a4,a4,a5
800025d0:	010108b7          	lui	a7,0x1010
800025d4:	02070263          	beqz	a4,800025f8 <handle_fault+0x2b4>
800025d8:	00000713          	li	a4,0
800025dc:	00e62023          	sw	a4,0(a2)
800025e0:	00000793          	li	a5,0
800025e4:	00f62223          	sw	a5,4(a2)
800025e8:	0006a703          	lw	a4,0(a3)
800025ec:	0046a783          	lw	a5,4(a3)
800025f0:	00f76733          	or	a4,a4,a5
800025f4:	fe0712e3          	bnez	a4,800025d8 <handle_fault+0x294>
800025f8:	0005c503          	lbu	a0,0(a1)
800025fc:	0106a023          	sw	a6,0(a3)
80002600:	0116a223          	sw	a7,4(a3)
80002604:	fa051ce3          	bnez	a0,800025bc <handle_fault+0x278>
80002608:	f25ff06f          	j	8000252c <handle_fault+0x1e8>
8000260c:	04100793          	li	a5,65
80002610:	00001597          	auipc	a1,0x1
80002614:	a8c58593          	addi	a1,a1,-1396 # 8000309c <pass+0x50>
80002618:	fffff697          	auipc	a3,0xfffff
8000261c:	9e868693          	addi	a3,a3,-1560 # 80001000 <tohost>
80002620:	fffff617          	auipc	a2,0xfffff
80002624:	a2060613          	addi	a2,a2,-1504 # 80001040 <fromhost>
80002628:	0006a803          	lw	a6,0(a3)
8000262c:	0046a883          	lw	a7,4(a3)
80002630:	00078413          	mv	s0,a5
80002634:	00158593          	addi	a1,a1,1
80002638:	01186833          	or	a6,a6,a7
8000263c:	010104b7          	lui	s1,0x1010
80002640:	02080263          	beqz	a6,80002664 <handle_fault+0x320>
80002644:	00000793          	li	a5,0
80002648:	00f62023          	sw	a5,0(a2)
8000264c:	00000813          	li	a6,0
80002650:	01062223          	sw	a6,4(a2)
80002654:	0006a703          	lw	a4,0(a3)
80002658:	0046a783          	lw	a5,4(a3)
8000265c:	00f76733          	or	a4,a4,a5
80002660:	fe0712e3          	bnez	a4,80002644 <handle_fault+0x300>
80002664:	0005c783          	lbu	a5,0(a1)
80002668:	0086a023          	sw	s0,0(a3)
8000266c:	0096a223          	sw	s1,4(a3)
80002670:	fa079ce3          	bnez	a5,80002628 <handle_fault+0x2e4>
80002674:	eb9ff06f          	j	8000252c <handle_fault+0x1e8>

80002678 <handle_trap>:
80002678:	08c52583          	lw	a1,140(a0)
8000267c:	fb010113          	addi	sp,sp,-80
80002680:	03412c23          	sw	s4,56(sp)
80002684:	04112623          	sw	ra,76(sp)
80002688:	04812423          	sw	s0,72(sp)
8000268c:	04912223          	sw	s1,68(sp)
80002690:	05212023          	sw	s2,64(sp)
80002694:	03312e23          	sw	s3,60(sp)
80002698:	03512a23          	sw	s5,52(sp)
8000269c:	03612823          	sw	s6,48(sp)
800026a0:	03712623          	sw	s7,44(sp)
800026a4:	03812423          	sw	s8,40(sp)
800026a8:	03912223          	sw	s9,36(sp)
800026ac:	03a12023          	sw	s10,32(sp)
800026b0:	01b12e23          	sw	s11,28(sp)
800026b4:	00800793          	li	a5,8
800026b8:	00050a13          	mv	s4,a0
800026bc:	16f58663          	beq	a1,a5,80002828 <handle_trap+0x1b0>
800026c0:	00200793          	li	a5,2
800026c4:	06f58063          	beq	a1,a5,80002724 <handle_trap+0xac>
800026c8:	ff458793          	addi	a5,a1,-12
800026cc:	00100713          	li	a4,1
800026d0:	00f77663          	bleu	a5,a4,800026dc <handle_trap+0x64>
800026d4:	00f00793          	li	a5,15
800026d8:	22f59a63          	bne	a1,a5,8000290c <handle_trap+0x294>
800026dc:	088a2503          	lw	a0,136(s4)
800026e0:	c65ff0ef          	jal	ra,80002344 <handle_fault>
800026e4:	04812403          	lw	s0,72(sp)
800026e8:	04c12083          	lw	ra,76(sp)
800026ec:	04412483          	lw	s1,68(sp)
800026f0:	04012903          	lw	s2,64(sp)
800026f4:	03c12983          	lw	s3,60(sp)
800026f8:	03412a83          	lw	s5,52(sp)
800026fc:	03012b03          	lw	s6,48(sp)
80002700:	02c12b83          	lw	s7,44(sp)
80002704:	02812c03          	lw	s8,40(sp)
80002708:	02412c83          	lw	s9,36(sp)
8000270c:	02012d03          	lw	s10,32(sp)
80002710:	01c12d83          	lw	s11,28(sp)
80002714:	000a0513          	mv	a0,s4
80002718:	03812a03          	lw	s4,56(sp)
8000271c:	05010113          	addi	sp,sp,80
80002720:	99dfd06f          	j	800000bc <pop_tf>
80002724:	08452703          	lw	a4,132(a0)
80002728:	00377793          	andi	a5,a4,3
8000272c:	08079863          	bnez	a5,800027bc <handle_trap+0x144>
80002730:	008007ef          	jal	a5,80002738 <handle_trap+0xc0>
80002734:	00301073          	fssr	zero
80002738:	00072703          	lw	a4,0(a4)
8000273c:	0007a783          	lw	a5,0(a5)
80002740:	06f70a63          	beq	a4,a5,800027b4 <handle_trap+0x13c>
80002744:	04100513          	li	a0,65
80002748:	00001597          	auipc	a1,0x1
8000274c:	a7c58593          	addi	a1,a1,-1412 # 800031c4 <pass+0x178>
80002750:	fffff697          	auipc	a3,0xfffff
80002754:	8b068693          	addi	a3,a3,-1872 # 80001000 <tohost>
80002758:	fffff617          	auipc	a2,0xfffff
8000275c:	8e860613          	addi	a2,a2,-1816 # 80001040 <fromhost>
80002760:	0006a703          	lw	a4,0(a3)
80002764:	0046a783          	lw	a5,4(a3)
80002768:	00050813          	mv	a6,a0
8000276c:	00158593          	addi	a1,a1,1
80002770:	00f76733          	or	a4,a4,a5
80002774:	010108b7          	lui	a7,0x1010
80002778:	02070263          	beqz	a4,8000279c <handle_trap+0x124>
8000277c:	00000713          	li	a4,0
80002780:	00e62023          	sw	a4,0(a2)
80002784:	00000793          	li	a5,0
80002788:	00f62223          	sw	a5,4(a2)
8000278c:	0006a703          	lw	a4,0(a3)
80002790:	0046a783          	lw	a5,4(a3)
80002794:	00f76733          	or	a4,a4,a5
80002798:	fe0712e3          	bnez	a4,8000277c <handle_trap+0x104>
8000279c:	0005c503          	lbu	a0,0(a1)
800027a0:	0106a023          	sw	a6,0(a3)
800027a4:	0116a223          	sw	a7,4(a3)
800027a8:	fa051ce3          	bnez	a0,80002760 <handle_trap+0xe8>
800027ac:	00300513          	li	a0,3
800027b0:	a79ff0ef          	jal	ra,80002228 <terminate>
800027b4:	00100513          	li	a0,1
800027b8:	a71ff0ef          	jal	ra,80002228 <terminate>
800027bc:	00001597          	auipc	a1,0x1
800027c0:	9e458593          	addi	a1,a1,-1564 # 800031a0 <pass+0x154>
800027c4:	04100613          	li	a2,65
800027c8:	fffff697          	auipc	a3,0xfffff
800027cc:	83868693          	addi	a3,a3,-1992 # 80001000 <tohost>
800027d0:	fffff517          	auipc	a0,0xfffff
800027d4:	87050513          	addi	a0,a0,-1936 # 80001040 <fromhost>
800027d8:	0006a703          	lw	a4,0(a3)
800027dc:	0046a783          	lw	a5,4(a3)
800027e0:	00060e13          	mv	t3,a2
800027e4:	00158593          	addi	a1,a1,1
800027e8:	00f76733          	or	a4,a4,a5
800027ec:	01010eb7          	lui	t4,0x1010
800027f0:	02070263          	beqz	a4,80002814 <handle_trap+0x19c>
800027f4:	00000793          	li	a5,0
800027f8:	00f52023          	sw	a5,0(a0)
800027fc:	00000813          	li	a6,0
80002800:	01052223          	sw	a6,4(a0)
80002804:	0006a703          	lw	a4,0(a3)
80002808:	0046a783          	lw	a5,4(a3)
8000280c:	00f76733          	or	a4,a4,a5
80002810:	fe0712e3          	bnez	a4,800027f4 <handle_trap+0x17c>
80002814:	0005c603          	lbu	a2,0(a1)
80002818:	01c6a023          	sw	t3,0(a3)
8000281c:	01d6a223          	sw	t4,4(a3)
80002820:	fa061ce3          	bnez	a2,800027d8 <handle_trap+0x160>
80002824:	f89ff06f          	j	800027ac <handle_trap+0x134>
80002828:	02852783          	lw	a5,40(a0)
8000282c:	00001a37          	lui	s4,0x1
80002830:	00005b17          	auipc	s6,0x5
80002834:	9c8b0b13          	addi	s6,s6,-1592 # 800071f8 <user_mapping>
80002838:	00f12223          	sw	a5,4(sp)
8000283c:	00002d17          	auipc	s10,0x2
80002840:	7c4d0d13          	addi	s10,s10,1988 # 80005000 <pt>
80002844:	00040cb7          	lui	s9,0x40
80002848:	ffc00c37          	lui	s8,0xffc00
8000284c:	0003fab7          	lui	s5,0x3f
80002850:	01c0006f          	j	8000286c <handle_trap+0x1f4>
80002854:	00f72223          	sw	a5,4(a4)
80002858:	00005717          	auipc	a4,0x5
8000285c:	b8f72c23          	sw	a5,-1128(a4) # 800073f0 <freelist_tail>
80002860:	000017b7          	lui	a5,0x1
80002864:	00fa0a33          	add	s4,s4,a5
80002868:	1b5a0463          	beq	s4,s5,80002a10 <handle_trap+0x398>
8000286c:	00ca5713          	srli	a4,s4,0xc
80002870:	00371b93          	slli	s7,a4,0x3
80002874:	017b0633          	add	a2,s6,s7
80002878:	00062603          	lw	a2,0(a2)
8000287c:	fe0602e3          	beqz	a2,80002860 <handle_trap+0x1e8>
80002880:	40070713          	addi	a4,a4,1024
80002884:	00271713          	slli	a4,a4,0x2
80002888:	00ed0733          	add	a4,s10,a4
8000288c:	00072703          	lw	a4,0(a4)
80002890:	04077613          	andi	a2,a4,64
80002894:	12060863          	beqz	a2,800029c4 <handle_trap+0x34c>
80002898:	00e12623          	sw	a4,12(sp)
8000289c:	100cadf3          	csrrs	s11,sstatus,s9
800028a0:	018a0833          	add	a6,s4,s8
800028a4:	00001637          	lui	a2,0x1
800028a8:	00080593          	mv	a1,a6
800028ac:	000a0513          	mv	a0,s4
800028b0:	01012423          	sw	a6,8(sp)
800028b4:	855ff0ef          	jal	ra,80002108 <memcmp>
800028b8:	02050263          	beqz	a0,800028dc <handle_trap+0x264>
800028bc:	00c12703          	lw	a4,12(sp)
800028c0:	00812803          	lw	a6,8(sp)
800028c4:	08077713          	andi	a4,a4,128
800028c8:	0a070863          	beqz	a4,80002978 <handle_trap+0x300>
800028cc:	00001637          	lui	a2,0x1
800028d0:	00080593          	mv	a1,a6
800028d4:	000a0513          	mv	a0,s4
800028d8:	f28ff0ef          	jal	ra,80002000 <memcpy>
800028dc:	017b07b3          	add	a5,s6,s7
800028e0:	100d9073          	csrw	sstatus,s11
800028e4:	00005717          	auipc	a4,0x5
800028e8:	b0c70713          	addi	a4,a4,-1268 # 800073f0 <freelist_tail>
800028ec:	00072703          	lw	a4,0(a4)
800028f0:	0007a023          	sw	zero,0(a5) # 1000 <_start-0x7ffff000>
800028f4:	f60710e3          	bnez	a4,80002854 <handle_trap+0x1dc>
800028f8:	00005717          	auipc	a4,0x5
800028fc:	aef72c23          	sw	a5,-1288(a4) # 800073f0 <freelist_tail>
80002900:	00005717          	auipc	a4,0x5
80002904:	aef72a23          	sw	a5,-1292(a4) # 800073f4 <freelist_head>
80002908:	f59ff06f          	j	80002860 <handle_trap+0x1e8>
8000290c:	04100593          	li	a1,65
80002910:	00001617          	auipc	a2,0x1
80002914:	8e060613          	addi	a2,a2,-1824 # 800031f0 <pass+0x1a4>
80002918:	ffffe697          	auipc	a3,0xffffe
8000291c:	6e868693          	addi	a3,a3,1768 # 80001000 <tohost>
80002920:	ffffe517          	auipc	a0,0xffffe
80002924:	72050513          	addi	a0,a0,1824 # 80001040 <fromhost>
80002928:	0006a703          	lw	a4,0(a3)
8000292c:	0046a783          	lw	a5,4(a3)
80002930:	00058313          	mv	t1,a1
80002934:	00160613          	addi	a2,a2,1
80002938:	00f76733          	or	a4,a4,a5
8000293c:	010103b7          	lui	t2,0x1010
80002940:	02070263          	beqz	a4,80002964 <handle_trap+0x2ec>
80002944:	00000793          	li	a5,0
80002948:	00f52023          	sw	a5,0(a0)
8000294c:	00000813          	li	a6,0
80002950:	01052223          	sw	a6,4(a0)
80002954:	0006a703          	lw	a4,0(a3)
80002958:	0046a783          	lw	a5,4(a3)
8000295c:	00f76733          	or	a4,a4,a5
80002960:	fe0712e3          	bnez	a4,80002944 <handle_trap+0x2cc>
80002964:	00064583          	lbu	a1,0(a2)
80002968:	0066a023          	sw	t1,0(a3)
8000296c:	0076a223          	sw	t2,4(a3)
80002970:	fa059ce3          	bnez	a1,80002928 <handle_trap+0x2b0>
80002974:	e39ff06f          	j	800027ac <handle_trap+0x134>
80002978:	04100793          	li	a5,65
8000297c:	00000617          	auipc	a2,0x0
80002980:	7f060613          	addi	a2,a2,2032 # 8000316c <pass+0x120>
80002984:	ffffe697          	auipc	a3,0xffffe
80002988:	67c68693          	addi	a3,a3,1660 # 80001000 <tohost>
8000298c:	ffffe597          	auipc	a1,0xffffe
80002990:	6b458593          	addi	a1,a1,1716 # 80001040 <fromhost>
80002994:	00078413          	mv	s0,a5
80002998:	00160613          	addi	a2,a2,1
8000299c:	010104b7          	lui	s1,0x1010
800029a0:	0006a703          	lw	a4,0(a3)
800029a4:	0046a783          	lw	a5,4(a3)
800029a8:	00f76733          	or	a4,a4,a5
800029ac:	06070663          	beqz	a4,80002a18 <handle_trap+0x3a0>
800029b0:	00000793          	li	a5,0
800029b4:	00000813          	li	a6,0
800029b8:	00f5a023          	sw	a5,0(a1)
800029bc:	0105a223          	sw	a6,4(a1)
800029c0:	fe1ff06f          	j	800029a0 <handle_trap+0x328>
800029c4:	04100793          	li	a5,65
800029c8:	00000617          	auipc	a2,0x0
800029cc:	77060613          	addi	a2,a2,1904 # 80003138 <pass+0xec>
800029d0:	ffffe697          	auipc	a3,0xffffe
800029d4:	63068693          	addi	a3,a3,1584 # 80001000 <tohost>
800029d8:	ffffe597          	auipc	a1,0xffffe
800029dc:	66858593          	addi	a1,a1,1640 # 80001040 <fromhost>
800029e0:	00078913          	mv	s2,a5
800029e4:	00160613          	addi	a2,a2,1
800029e8:	010109b7          	lui	s3,0x1010
800029ec:	0006a703          	lw	a4,0(a3)
800029f0:	0046a783          	lw	a5,4(a3)
800029f4:	00f76733          	or	a4,a4,a5
800029f8:	02070a63          	beqz	a4,80002a2c <handle_trap+0x3b4>
800029fc:	00000793          	li	a5,0
80002a00:	00000813          	li	a6,0
80002a04:	00f5a023          	sw	a5,0(a1)
80002a08:	0105a223          	sw	a6,4(a1)
80002a0c:	fe1ff06f          	j	800029ec <handle_trap+0x374>
80002a10:	00412503          	lw	a0,4(sp)
80002a14:	815ff0ef          	jal	ra,80002228 <terminate>
80002a18:	00064783          	lbu	a5,0(a2)
80002a1c:	0086a023          	sw	s0,0(a3)
80002a20:	0096a223          	sw	s1,4(a3)
80002a24:	f60798e3          	bnez	a5,80002994 <handle_trap+0x31c>
80002a28:	d85ff06f          	j	800027ac <handle_trap+0x134>
80002a2c:	00064783          	lbu	a5,0(a2)
80002a30:	0126a023          	sw	s2,0(a3)
80002a34:	0136a223          	sw	s3,4(a3)
80002a38:	fa0794e3          	bnez	a5,800029e0 <handle_trap+0x368>
80002a3c:	d71ff06f          	j	800027ac <handle_trap+0x134>

80002a40 <vm_boot>:
80002a40:	f14027f3          	csrr	a5,mhartid
80002a44:	16079a63          	bnez	a5,80002bb8 <vm_boot+0x178>
80002a48:	00003797          	auipc	a5,0x3
80002a4c:	5b878793          	addi	a5,a5,1464 # 80006000 <pt+0x1000>
80002a50:	00c7d793          	srli	a5,a5,0xc
80002a54:	00a79793          	slli	a5,a5,0xa
80002a58:	0017e793          	ori	a5,a5,1
80002a5c:	00002617          	auipc	a2,0x2
80002a60:	5af62223          	sw	a5,1444(a2) # 80005000 <pt>
80002a64:	200007b7          	lui	a5,0x20000
80002a68:	00002717          	auipc	a4,0x2
80002a6c:	59870713          	addi	a4,a4,1432 # 80005000 <pt>
80002a70:	0cf78793          	addi	a5,a5,207 # 200000cf <_start-0x5fffff31>
80002a74:	f6010113          	addi	sp,sp,-160
80002a78:	800006b7          	lui	a3,0x80000
80002a7c:	00003617          	auipc	a2,0x3
80002a80:	58f62023          	sw	a5,1408(a2) # 80005ffc <pt+0xffc>
80002a84:	00c75793          	srli	a5,a4,0xc
80002a88:	08812c23          	sw	s0,152(sp)
80002a8c:	08112e23          	sw	ra,156(sp)
80002a90:	00050413          	mv	s0,a0
80002a94:	00d7e7b3          	or	a5,a5,a3
80002a98:	18079073          	csrw	satp,a5
80002a9c:	18002773          	csrr	a4,satp
80002aa0:	16e79c63          	bne	a5,a4,80002c18 <vm_boot+0x1d8>
80002aa4:	fff6c693          	not	a3,a3
80002aa8:	01f00793          	li	a5,31
80002aac:	00000297          	auipc	t0,0x0
80002ab0:	01428293          	addi	t0,t0,20 # 80002ac0 <vm_boot+0x80>
80002ab4:	305292f3          	csrrw	t0,mtvec,t0
80002ab8:	3b069073          	csrw	pmpaddr0,a3
80002abc:	3a079073          	csrw	pmpcfg0,a5
80002ac0:	30529073          	csrw	mtvec,t0
80002ac4:	7fbfd797          	auipc	a5,0x7fbfd
80002ac8:	68078793          	addi	a5,a5,1664 # ffc00144 <_end+0x7fbf8d4c>
80002acc:	10579073          	csrw	stvec,a5
80002ad0:	340027f3          	csrr	a5,mscratch
80002ad4:	7fc008b7          	lui	a7,0x7fc00
80002ad8:	011787b3          	add	a5,a5,a7
80002adc:	14079073          	csrw	sscratch,a5
80002ae0:	0000b7b7          	lui	a5,0xb
80002ae4:	10078793          	addi	a5,a5,256 # b100 <_start-0x7fff4f00>
80002ae8:	30279073          	csrw	medeleg,a5
80002aec:	0001e7b7          	lui	a5,0x1e
80002af0:	60078793          	addi	a5,a5,1536 # 1e600 <_start-0x7ffe1a00>
80002af4:	30079073          	csrw	mstatus,a5
80002af8:	30405073          	csrwi	mie,0
80002afc:	7fc04797          	auipc	a5,0x7fc04
80002b00:	50478793          	addi	a5,a5,1284 # ffc07000 <_end+0x7fbffc08>
80002b04:	00005717          	auipc	a4,0x5
80002b08:	8ef72823          	sw	a5,-1808(a4) # 800073f4 <freelist_head>
80002b0c:	7fc04797          	auipc	a5,0x7fc04
80002b10:	6e478793          	addi	a5,a5,1764 # ffc071f0 <_end+0x7fbffdf8>
80002b14:	00005717          	auipc	a4,0x5
80002b18:	8cf72e23          	sw	a5,-1828(a4) # 800073f0 <freelist_tail>
80002b1c:	00080337          	lui	t1,0x80
80002b20:	00004717          	auipc	a4,0x4
80002b24:	4e070713          	addi	a4,a4,1248 # 80007000 <freelist_nodes>
80002b28:	00004e17          	auipc	t3,0x4
80002b2c:	6d0e0e13          	addi	t3,t3,1744 # 800071f8 <user_mapping>
80002b30:	03200793          	li	a5,50
80002b34:	00000593          	li	a1,0
80002b38:	03f30313          	addi	t1,t1,63 # 8003f <_start-0x7ff7ffc1>
80002b3c:	00888893          	addi	a7,a7,8 # 7fc00008 <_start-0x3ffff8>
80002b40:	01f59613          	slli	a2,a1,0x1f
80002b44:	0017d693          	srli	a3,a5,0x1
80002b48:	00d666b3          	or	a3,a2,a3
80002b4c:	00678633          	add	a2,a5,t1
80002b50:	00f6c7b3          	xor	a5,a3,a5
80002b54:	01170833          	add	a6,a4,a7
80002b58:	00c61613          	slli	a2,a2,0xc
80002b5c:	00579793          	slli	a5,a5,0x5
80002b60:	00c72023          	sw	a2,0(a4)
80002b64:	01072223          	sw	a6,4(a4)
80002b68:	0207f793          	andi	a5,a5,32
80002b6c:	00870713          	addi	a4,a4,8
80002b70:	00f6e7b3          	or	a5,a3,a5
80002b74:	0015d593          	srli	a1,a1,0x1
80002b78:	fcee14e3          	bne	t3,a4,80002b40 <vm_boot+0x100>
80002b7c:	09000613          	li	a2,144
80002b80:	00000593          	li	a1,0
80002b84:	00010513          	mv	a0,sp
80002b88:	00004797          	auipc	a5,0x4
80002b8c:	6607a623          	sw	zero,1644(a5) # 800071f4 <freelist_nodes+0x1f4>
80002b90:	cccff0ef          	jal	ra,8000205c <memset>
80002b94:	800007b7          	lui	a5,0x80000
80002b98:	00f40433          	add	s0,s0,a5
80002b9c:	00010513          	mv	a0,sp
80002ba0:	08812223          	sw	s0,132(sp)
80002ba4:	d18fd0ef          	jal	ra,800000bc <pop_tf>
80002ba8:	09c12083          	lw	ra,156(sp)
80002bac:	09812403          	lw	s0,152(sp)
80002bb0:	0a010113          	addi	sp,sp,160
80002bb4:	00008067          	ret
80002bb8:	025e77b7          	lui	a5,0x25e7
80002bbc:	000805b7          	lui	a1,0x80
80002bc0:	a0978793          	addi	a5,a5,-1527 # 25e6a09 <_start-0x7da195f7>
80002bc4:	00000713          	li	a4,0
80002bc8:	ffc58593          	addi	a1,a1,-4 # 7fffc <_start-0x7ff80004>
80002bcc:	80000837          	lui	a6,0x80000
80002bd0:	40000537          	lui	a0,0x40000
80002bd4:	02c0006f          	j	80002c00 <vm_boot+0x1c0>
80002bd8:	0006a02f          	amoadd.w	zero,zero,(a3)
80002bdc:	01f71613          	slli	a2,a4,0x1f
80002be0:	0017d693          	srli	a3,a5,0x1
80002be4:	00d666b3          	or	a3,a2,a3
80002be8:	00d7c7b3          	xor	a5,a5,a3
80002bec:	01e79793          	slli	a5,a5,0x1e
80002bf0:	00f57633          	and	a2,a0,a5
80002bf4:	00175713          	srli	a4,a4,0x1
80002bf8:	00068793          	mv	a5,a3
80002bfc:	00e66733          	or	a4,a2,a4
80002c00:	00b7f6b3          	and	a3,a5,a1
80002c04:	0017f613          	andi	a2,a5,1
80002c08:	010686b3          	add	a3,a3,a6
80002c0c:	fc0616e3          	bnez	a2,80002bd8 <vm_boot+0x198>
80002c10:	0006a003          	lw	zero,0(a3) # 80000000 <_end+0xffff8c08>
80002c14:	fc9ff06f          	j	80002bdc <vm_boot+0x19c>
80002c18:	04100593          	li	a1,65
80002c1c:	00000617          	auipc	a2,0x0
80002c20:	60060613          	addi	a2,a2,1536 # 8000321c <pass+0x1d0>
80002c24:	ffffe697          	auipc	a3,0xffffe
80002c28:	3dc68693          	addi	a3,a3,988 # 80001000 <tohost>
80002c2c:	ffffe517          	auipc	a0,0xffffe
80002c30:	41450513          	addi	a0,a0,1044 # 80001040 <fromhost>
80002c34:	0006a703          	lw	a4,0(a3)
80002c38:	0046a783          	lw	a5,4(a3)
80002c3c:	00058813          	mv	a6,a1
80002c40:	00160613          	addi	a2,a2,1
80002c44:	00f76733          	or	a4,a4,a5
80002c48:	010108b7          	lui	a7,0x1010
80002c4c:	02070263          	beqz	a4,80002c70 <vm_boot+0x230>
80002c50:	00000713          	li	a4,0
80002c54:	00e52023          	sw	a4,0(a0)
80002c58:	00000793          	li	a5,0
80002c5c:	00f52223          	sw	a5,4(a0)
80002c60:	0006a703          	lw	a4,0(a3)
80002c64:	0046a783          	lw	a5,4(a3)
80002c68:	00f76733          	or	a4,a4,a5
80002c6c:	fe0712e3          	bnez	a4,80002c50 <vm_boot+0x210>
80002c70:	00064583          	lbu	a1,0(a2)
80002c74:	0106a023          	sw	a6,0(a3)
80002c78:	0116a223          	sw	a7,4(a3)
80002c7c:	fa059ce3          	bnez	a1,80002c34 <vm_boot+0x1f4>
80002c80:	00300513          	li	a0,3
80002c84:	da4ff0ef          	jal	ra,80002228 <terminate>

80002c88 <extra_boot>:
80002c88:	00008067          	ret

80002c8c <userstart>:
80002c8c:	00301073          	fssr	zero

80002c90 <test_2>:
80002c90:	00200193          	li	gp,2
80002c94:	00001517          	auipc	a0,0x1
80002c98:	36c50513          	addi	a0,a0,876 # 80004000 <test_2_data>
80002c9c:	00052007          	flw	ft0,0(a0)
80002ca0:	00452087          	flw	ft1,4(a0)
80002ca4:	00852107          	flw	ft2,8(a0)
80002ca8:	00c52683          	lw	a3,12(a0)
80002cac:	281001d3          	fmin.s	ft3,ft0,ft1
80002cb0:	e0018553          	fmv.x.w	a0,ft3
80002cb4:	001015f3          	fsflags	a1,zero
80002cb8:	00000613          	li	a2,0
80002cbc:	38d51063          	bne	a0,a3,8000303c <fail>
80002cc0:	36c59e63          	bne	a1,a2,8000303c <fail>

80002cc4 <test_3>:
80002cc4:	00300193          	li	gp,3
80002cc8:	00001517          	auipc	a0,0x1
80002ccc:	34850513          	addi	a0,a0,840 # 80004010 <test_3_data>
80002cd0:	00052007          	flw	ft0,0(a0)
80002cd4:	00452087          	flw	ft1,4(a0)
80002cd8:	00852107          	flw	ft2,8(a0)
80002cdc:	00c52683          	lw	a3,12(a0)
80002ce0:	281001d3          	fmin.s	ft3,ft0,ft1
80002ce4:	e0018553          	fmv.x.w	a0,ft3
80002ce8:	001015f3          	fsflags	a1,zero
80002cec:	00000613          	li	a2,0
80002cf0:	34d51663          	bne	a0,a3,8000303c <fail>
80002cf4:	34c59463          	bne	a1,a2,8000303c <fail>

80002cf8 <test_4>:
80002cf8:	00400193          	li	gp,4
80002cfc:	00001517          	auipc	a0,0x1
80002d00:	32450513          	addi	a0,a0,804 # 80004020 <test_4_data>
80002d04:	00052007          	flw	ft0,0(a0)
80002d08:	00452087          	flw	ft1,4(a0)
80002d0c:	00852107          	flw	ft2,8(a0)
80002d10:	00c52683          	lw	a3,12(a0)
80002d14:	281001d3          	fmin.s	ft3,ft0,ft1
80002d18:	e0018553          	fmv.x.w	a0,ft3
80002d1c:	001015f3          	fsflags	a1,zero
80002d20:	00000613          	li	a2,0
80002d24:	30d51c63          	bne	a0,a3,8000303c <fail>
80002d28:	30c59a63          	bne	a1,a2,8000303c <fail>

80002d2c <test_5>:
80002d2c:	00500193          	li	gp,5
80002d30:	00001517          	auipc	a0,0x1
80002d34:	30050513          	addi	a0,a0,768 # 80004030 <test_5_data>
80002d38:	00052007          	flw	ft0,0(a0)
80002d3c:	00452087          	flw	ft1,4(a0)
80002d40:	00852107          	flw	ft2,8(a0)
80002d44:	00c52683          	lw	a3,12(a0)
80002d48:	281001d3          	fmin.s	ft3,ft0,ft1
80002d4c:	e0018553          	fmv.x.w	a0,ft3
80002d50:	001015f3          	fsflags	a1,zero
80002d54:	00000613          	li	a2,0
80002d58:	2ed51263          	bne	a0,a3,8000303c <fail>
80002d5c:	2ec59063          	bne	a1,a2,8000303c <fail>

80002d60 <test_6>:
80002d60:	00600193          	li	gp,6
80002d64:	00001517          	auipc	a0,0x1
80002d68:	2dc50513          	addi	a0,a0,732 # 80004040 <test_6_data>
80002d6c:	00052007          	flw	ft0,0(a0)
80002d70:	00452087          	flw	ft1,4(a0)
80002d74:	00852107          	flw	ft2,8(a0)
80002d78:	00c52683          	lw	a3,12(a0)
80002d7c:	281001d3          	fmin.s	ft3,ft0,ft1
80002d80:	e0018553          	fmv.x.w	a0,ft3
80002d84:	001015f3          	fsflags	a1,zero
80002d88:	00000613          	li	a2,0
80002d8c:	2ad51863          	bne	a0,a3,8000303c <fail>
80002d90:	2ac59663          	bne	a1,a2,8000303c <fail>

80002d94 <test_7>:
80002d94:	00700193          	li	gp,7
80002d98:	00001517          	auipc	a0,0x1
80002d9c:	2b850513          	addi	a0,a0,696 # 80004050 <test_7_data>
80002da0:	00052007          	flw	ft0,0(a0)
80002da4:	00452087          	flw	ft1,4(a0)
80002da8:	00852107          	flw	ft2,8(a0)
80002dac:	00c52683          	lw	a3,12(a0)
80002db0:	281001d3          	fmin.s	ft3,ft0,ft1
80002db4:	e0018553          	fmv.x.w	a0,ft3
80002db8:	001015f3          	fsflags	a1,zero
80002dbc:	00000613          	li	a2,0
80002dc0:	26d51e63          	bne	a0,a3,8000303c <fail>
80002dc4:	26c59c63          	bne	a1,a2,8000303c <fail>

80002dc8 <test_12>:
80002dc8:	00c00193          	li	gp,12
80002dcc:	00001517          	auipc	a0,0x1
80002dd0:	29450513          	addi	a0,a0,660 # 80004060 <test_12_data>
80002dd4:	00052007          	flw	ft0,0(a0)
80002dd8:	00452087          	flw	ft1,4(a0)
80002ddc:	00852107          	flw	ft2,8(a0)
80002de0:	00c52683          	lw	a3,12(a0)
80002de4:	281011d3          	fmax.s	ft3,ft0,ft1
80002de8:	e0018553          	fmv.x.w	a0,ft3
80002dec:	001015f3          	fsflags	a1,zero
80002df0:	00000613          	li	a2,0
80002df4:	24d51463          	bne	a0,a3,8000303c <fail>
80002df8:	24c59263          	bne	a1,a2,8000303c <fail>

80002dfc <test_13>:
80002dfc:	00d00193          	li	gp,13
80002e00:	00001517          	auipc	a0,0x1
80002e04:	27050513          	addi	a0,a0,624 # 80004070 <test_13_data>
80002e08:	00052007          	flw	ft0,0(a0)
80002e0c:	00452087          	flw	ft1,4(a0)
80002e10:	00852107          	flw	ft2,8(a0)
80002e14:	00c52683          	lw	a3,12(a0)
80002e18:	281011d3          	fmax.s	ft3,ft0,ft1
80002e1c:	e0018553          	fmv.x.w	a0,ft3
80002e20:	001015f3          	fsflags	a1,zero
80002e24:	00000613          	li	a2,0
80002e28:	20d51a63          	bne	a0,a3,8000303c <fail>
80002e2c:	20c59863          	bne	a1,a2,8000303c <fail>

80002e30 <test_14>:
80002e30:	00e00193          	li	gp,14
80002e34:	00001517          	auipc	a0,0x1
80002e38:	24c50513          	addi	a0,a0,588 # 80004080 <test_14_data>
80002e3c:	00052007          	flw	ft0,0(a0)
80002e40:	00452087          	flw	ft1,4(a0)
80002e44:	00852107          	flw	ft2,8(a0)
80002e48:	00c52683          	lw	a3,12(a0)
80002e4c:	281011d3          	fmax.s	ft3,ft0,ft1
80002e50:	e0018553          	fmv.x.w	a0,ft3
80002e54:	001015f3          	fsflags	a1,zero
80002e58:	00000613          	li	a2,0
80002e5c:	1ed51063          	bne	a0,a3,8000303c <fail>
80002e60:	1cc59e63          	bne	a1,a2,8000303c <fail>

80002e64 <test_15>:
80002e64:	00f00193          	li	gp,15
80002e68:	00001517          	auipc	a0,0x1
80002e6c:	22850513          	addi	a0,a0,552 # 80004090 <test_15_data>
80002e70:	00052007          	flw	ft0,0(a0)
80002e74:	00452087          	flw	ft1,4(a0)
80002e78:	00852107          	flw	ft2,8(a0)
80002e7c:	00c52683          	lw	a3,12(a0)
80002e80:	281011d3          	fmax.s	ft3,ft0,ft1
80002e84:	e0018553          	fmv.x.w	a0,ft3
80002e88:	001015f3          	fsflags	a1,zero
80002e8c:	00000613          	li	a2,0
80002e90:	1ad51663          	bne	a0,a3,8000303c <fail>
80002e94:	1ac59463          	bne	a1,a2,8000303c <fail>

80002e98 <test_16>:
80002e98:	01000193          	li	gp,16
80002e9c:	00001517          	auipc	a0,0x1
80002ea0:	20450513          	addi	a0,a0,516 # 800040a0 <test_16_data>
80002ea4:	00052007          	flw	ft0,0(a0)
80002ea8:	00452087          	flw	ft1,4(a0)
80002eac:	00852107          	flw	ft2,8(a0)
80002eb0:	00c52683          	lw	a3,12(a0)
80002eb4:	281011d3          	fmax.s	ft3,ft0,ft1
80002eb8:	e0018553          	fmv.x.w	a0,ft3
80002ebc:	001015f3          	fsflags	a1,zero
80002ec0:	00000613          	li	a2,0
80002ec4:	16d51c63          	bne	a0,a3,8000303c <fail>
80002ec8:	16c59a63          	bne	a1,a2,8000303c <fail>

80002ecc <test_17>:
80002ecc:	01100193          	li	gp,17
80002ed0:	00001517          	auipc	a0,0x1
80002ed4:	1e050513          	addi	a0,a0,480 # 800040b0 <test_17_data>
80002ed8:	00052007          	flw	ft0,0(a0)
80002edc:	00452087          	flw	ft1,4(a0)
80002ee0:	00852107          	flw	ft2,8(a0)
80002ee4:	00c52683          	lw	a3,12(a0)
80002ee8:	281011d3          	fmax.s	ft3,ft0,ft1
80002eec:	e0018553          	fmv.x.w	a0,ft3
80002ef0:	001015f3          	fsflags	a1,zero
80002ef4:	00000613          	li	a2,0
80002ef8:	14d51263          	bne	a0,a3,8000303c <fail>
80002efc:	14c59063          	bne	a1,a2,8000303c <fail>

80002f00 <test_20>:
80002f00:	01400193          	li	gp,20
80002f04:	00001517          	auipc	a0,0x1
80002f08:	1bc50513          	addi	a0,a0,444 # 800040c0 <test_20_data>
80002f0c:	00052007          	flw	ft0,0(a0)
80002f10:	00452087          	flw	ft1,4(a0)
80002f14:	00852107          	flw	ft2,8(a0)
80002f18:	00c52683          	lw	a3,12(a0)
80002f1c:	281011d3          	fmax.s	ft3,ft0,ft1
80002f20:	e0018553          	fmv.x.w	a0,ft3
80002f24:	001015f3          	fsflags	a1,zero
80002f28:	01000613          	li	a2,16
80002f2c:	10d51863          	bne	a0,a3,8000303c <fail>
80002f30:	10c59663          	bne	a1,a2,8000303c <fail>

80002f34 <test_21>:
80002f34:	01500193          	li	gp,21
80002f38:	00001517          	auipc	a0,0x1
80002f3c:	19850513          	addi	a0,a0,408 # 800040d0 <test_21_data>
80002f40:	00052007          	flw	ft0,0(a0)
80002f44:	00452087          	flw	ft1,4(a0)
80002f48:	00852107          	flw	ft2,8(a0)
80002f4c:	00c52683          	lw	a3,12(a0)
80002f50:	281011d3          	fmax.s	ft3,ft0,ft1
80002f54:	e0018553          	fmv.x.w	a0,ft3
80002f58:	001015f3          	fsflags	a1,zero
80002f5c:	00000613          	li	a2,0
80002f60:	0cd51e63          	bne	a0,a3,8000303c <fail>
80002f64:	0cc59c63          	bne	a1,a2,8000303c <fail>

80002f68 <test_30>:
80002f68:	01e00193          	li	gp,30
80002f6c:	00001517          	auipc	a0,0x1
80002f70:	17450513          	addi	a0,a0,372 # 800040e0 <test_30_data>
80002f74:	00052007          	flw	ft0,0(a0)
80002f78:	00452087          	flw	ft1,4(a0)
80002f7c:	00852107          	flw	ft2,8(a0)
80002f80:	00c52683          	lw	a3,12(a0)
80002f84:	281001d3          	fmin.s	ft3,ft0,ft1
80002f88:	e0018553          	fmv.x.w	a0,ft3
80002f8c:	001015f3          	fsflags	a1,zero
80002f90:	00000613          	li	a2,0
80002f94:	0ad51463          	bne	a0,a3,8000303c <fail>
80002f98:	0ac59263          	bne	a1,a2,8000303c <fail>

80002f9c <test_31>:
80002f9c:	01f00193          	li	gp,31
80002fa0:	00001517          	auipc	a0,0x1
80002fa4:	15050513          	addi	a0,a0,336 # 800040f0 <test_31_data>
80002fa8:	00052007          	flw	ft0,0(a0)
80002fac:	00452087          	flw	ft1,4(a0)
80002fb0:	00852107          	flw	ft2,8(a0)
80002fb4:	00c52683          	lw	a3,12(a0)
80002fb8:	281001d3          	fmin.s	ft3,ft0,ft1
80002fbc:	e0018553          	fmv.x.w	a0,ft3
80002fc0:	001015f3          	fsflags	a1,zero
80002fc4:	00000613          	li	a2,0
80002fc8:	06d51a63          	bne	a0,a3,8000303c <fail>
80002fcc:	06c59863          	bne	a1,a2,8000303c <fail>

80002fd0 <test_32>:
80002fd0:	02000193          	li	gp,32
80002fd4:	00001517          	auipc	a0,0x1
80002fd8:	12c50513          	addi	a0,a0,300 # 80004100 <test_32_data>
80002fdc:	00052007          	flw	ft0,0(a0)
80002fe0:	00452087          	flw	ft1,4(a0)
80002fe4:	00852107          	flw	ft2,8(a0)
80002fe8:	00c52683          	lw	a3,12(a0)
80002fec:	281011d3          	fmax.s	ft3,ft0,ft1
80002ff0:	e0018553          	fmv.x.w	a0,ft3
80002ff4:	001015f3          	fsflags	a1,zero
80002ff8:	00000613          	li	a2,0
80002ffc:	04d51063          	bne	a0,a3,8000303c <fail>
80003000:	02c59e63          	bne	a1,a2,8000303c <fail>

80003004 <test_33>:
80003004:	02100193          	li	gp,33
80003008:	00001517          	auipc	a0,0x1
8000300c:	10850513          	addi	a0,a0,264 # 80004110 <test_33_data>
80003010:	00052007          	flw	ft0,0(a0)
80003014:	00452087          	flw	ft1,4(a0)
80003018:	00852107          	flw	ft2,8(a0)
8000301c:	00c52683          	lw	a3,12(a0)
80003020:	281011d3          	fmax.s	ft3,ft0,ft1
80003024:	e0018553          	fmv.x.w	a0,ft3
80003028:	001015f3          	fsflags	a1,zero
8000302c:	00000613          	li	a2,0
80003030:	00d51663          	bne	a0,a3,8000303c <fail>
80003034:	00c59463          	bne	a1,a2,8000303c <fail>
80003038:	00301a63          	bne	zero,gp,8000304c <pass>

8000303c <fail>:
8000303c:	00119513          	slli	a0,gp,0x1
80003040:	00050063          	beqz	a0,80003040 <fail+0x4>
80003044:	00156513          	ori	a0,a0,1
80003048:	00000073          	ecall

8000304c <pass>:
8000304c:	00100513          	li	a0,1
80003050:	00000073          	ecall
80003054:	c0001073          	unimp

Disassembly of section .data:

80004000 <test_2_data>:
80004000:	0000                	unimp
80004002:	4020                	lw	s0,64(s0)
80004004:	0000                	unimp
80004006:	3f80                	fld	fs0,56(a5)
80004008:	0000                	unimp
8000400a:	0000                	unimp
8000400c:	0000                	unimp
8000400e:	3f80                	fld	fs0,56(a5)

80004010 <test_3_data>:
80004010:	c49a6333          	0xc49a6333
80004014:	cccd                	beqz	s1,800040ce <test_20_data+0xe>
80004016:	3f8c                	fld	fa1,56(a5)
80004018:	0000                	unimp
8000401a:	0000                	unimp
8000401c:	c49a6333          	0xc49a6333

80004020 <test_4_data>:
80004020:	cccd                	beqz	s1,800040da <test_21_data+0xa>
80004022:	3f8c                	fld	fa1,56(a5)
80004024:	c49a6333          	0xc49a6333
80004028:	0000                	unimp
8000402a:	0000                	unimp
8000402c:	c49a6333          	0xc49a6333

80004030 <test_5_data>:
80004030:	ffff                	0xffff
80004032:	7fff                	0x7fff
80004034:	c49a6333          	0xc49a6333
80004038:	0000                	unimp
8000403a:	0000                	unimp
8000403c:	c49a6333          	0xc49a6333

80004040 <test_6_data>:
80004040:	40490fdb          	0x40490fdb
80004044:	322bcc77          	0x322bcc77
80004048:	0000                	unimp
8000404a:	0000                	unimp
8000404c:	322bcc77          	0x322bcc77

80004050 <test_7_data>:
80004050:	0000                	unimp
80004052:	bf80                	fsd	fs0,56(a5)
80004054:	0000                	unimp
80004056:	c000                	sw	s0,0(s0)
80004058:	0000                	unimp
8000405a:	0000                	unimp
8000405c:	0000                	unimp
8000405e:	c000                	sw	s0,0(s0)

80004060 <test_12_data>:
80004060:	0000                	unimp
80004062:	4020                	lw	s0,64(s0)
80004064:	0000                	unimp
80004066:	3f80                	fld	fs0,56(a5)
80004068:	0000                	unimp
8000406a:	0000                	unimp
8000406c:	0000                	unimp
8000406e:	4020                	lw	s0,64(s0)

80004070 <test_13_data>:
80004070:	c49a6333          	0xc49a6333
80004074:	cccd                	beqz	s1,8000412e <begin_signature+0xe>
80004076:	3f8c                	fld	fa1,56(a5)
80004078:	0000                	unimp
8000407a:	0000                	unimp
8000407c:	cccd                	beqz	s1,80004136 <begin_signature+0x16>
8000407e:	3f8c                	fld	fa1,56(a5)

80004080 <test_14_data>:
80004080:	cccd                	beqz	s1,8000413a <begin_signature+0x1a>
80004082:	3f8c                	fld	fa1,56(a5)
80004084:	c49a6333          	0xc49a6333
80004088:	0000                	unimp
8000408a:	0000                	unimp
8000408c:	cccd                	beqz	s1,80004146 <begin_signature+0x26>
8000408e:	3f8c                	fld	fa1,56(a5)

80004090 <test_15_data>:
80004090:	ffff                	0xffff
80004092:	7fff                	0x7fff
80004094:	c49a6333          	0xc49a6333
80004098:	0000                	unimp
8000409a:	0000                	unimp
8000409c:	c49a6333          	0xc49a6333

800040a0 <test_16_data>:
800040a0:	40490fdb          	0x40490fdb
800040a4:	322bcc77          	0x322bcc77
800040a8:	0000                	unimp
800040aa:	0000                	unimp
800040ac:	40490fdb          	0x40490fdb

800040b0 <test_17_data>:
800040b0:	0000                	unimp
800040b2:	bf80                	fsd	fs0,56(a5)
800040b4:	0000                	unimp
800040b6:	c000                	sw	s0,0(s0)
800040b8:	0000                	unimp
800040ba:	0000                	unimp
800040bc:	0000                	unimp
800040be:	bf80                	fsd	fs0,56(a5)

800040c0 <test_20_data>:
800040c0:	0001                	nop
800040c2:	7f80                	flw	fs0,56(a5)
800040c4:	0000                	unimp
800040c6:	3f80                	fld	fs0,56(a5)
800040c8:	0000                	unimp
800040ca:	0000                	unimp
800040cc:	0000                	unimp
800040ce:	3f80                	fld	fs0,56(a5)

800040d0 <test_21_data>:
800040d0:	ffff                	0xffff
800040d2:	7fff                	0x7fff
800040d4:	ffff                	0xffff
800040d6:	7fff                	0x7fff
800040d8:	0000                	unimp
800040da:	0000                	unimp
800040dc:	0000                	unimp
800040de:	7fc0                	flw	fs0,60(a5)

800040e0 <test_30_data>:
800040e0:	0000                	unimp
800040e2:	8000                	0x8000
800040e4:	0000                	unimp
800040e6:	0000                	unimp
800040e8:	0000                	unimp
800040ea:	0000                	unimp
800040ec:	0000                	unimp
800040ee:	8000                	0x8000

800040f0 <test_31_data>:
800040f0:	0000                	unimp
800040f2:	0000                	unimp
800040f4:	0000                	unimp
800040f6:	8000                	0x8000
800040f8:	0000                	unimp
800040fa:	0000                	unimp
800040fc:	0000                	unimp
800040fe:	8000                	0x8000

80004100 <test_32_data>:
80004100:	0000                	unimp
80004102:	8000                	0x8000
80004104:	0000                	unimp
80004106:	0000                	unimp
80004108:	0000                	unimp
8000410a:	0000                	unimp
8000410c:	0000                	unimp
8000410e:	0000                	unimp

80004110 <test_33_data>:
80004110:	0000                	unimp
80004112:	0000                	unimp
80004114:	0000                	unimp
80004116:	8000                	0x8000
80004118:	0000                	unimp
8000411a:	0000                	unimp
8000411c:	0000                	unimp
8000411e:	0000                	unimp
