
rv64ui-p-bge:     file format elf64-littleriscv


Disassembly of section .text.init:

0000000080000000 <_start>:
    80000000:	04c0006f          	j	8000004c <reset_vector>

0000000080000004 <trap_vector>:
    80000004:	34202f73          	csrr	t5,mcause
    80000008:	00800f93          	li	t6,8
    8000000c:	03ff0a63          	beq	t5,t6,80000040 <write_tohost>
    80000010:	00900f93          	li	t6,9
    80000014:	03ff0663          	beq	t5,t6,80000040 <write_tohost>
    80000018:	00b00f93          	li	t6,11
    8000001c:	03ff0263          	beq	t5,t6,80000040 <write_tohost>
    80000020:	80000f17          	auipc	t5,0x80000
    80000024:	fe0f0f13          	addi	t5,t5,-32 # 0 <_start-0x80000000>
    80000028:	000f0463          	beqz	t5,80000030 <trap_vector+0x2c>
    8000002c:	000f0067          	jr	t5
    80000030:	34202f73          	csrr	t5,mcause
    80000034:	000f5463          	bgez	t5,8000003c <handle_exception>
    80000038:	0040006f          	j	8000003c <handle_exception>

000000008000003c <handle_exception>:
    8000003c:	5391e193          	ori	gp,gp,1337

0000000080000040 <write_tohost>:
    80000040:	00001f17          	auipc	t5,0x1
    80000044:	fc3f2023          	sw	gp,-64(t5) # 80001000 <tohost>
    80000048:	ff9ff06f          	j	80000040 <write_tohost>

000000008000004c <reset_vector>:
    8000004c:	00000093          	li	ra,0
    80000050:	00000113          	li	sp,0
    80000054:	00000193          	li	gp,0
    80000058:	00000213          	li	tp,0
    8000005c:	00000293          	li	t0,0
    80000060:	00000313          	li	t1,0
    80000064:	00000393          	li	t2,0
    80000068:	00000413          	li	s0,0
    8000006c:	00000493          	li	s1,0
    80000070:	00000513          	li	a0,0
    80000074:	00000593          	li	a1,0
    80000078:	00000613          	li	a2,0
    8000007c:	00000693          	li	a3,0
    80000080:	00000713          	li	a4,0
    80000084:	00000793          	li	a5,0
    80000088:	00000813          	li	a6,0
    8000008c:	00000893          	li	a7,0
    80000090:	00000913          	li	s2,0
    80000094:	00000993          	li	s3,0
    80000098:	00000a13          	li	s4,0
    8000009c:	00000a93          	li	s5,0
    800000a0:	00000b13          	li	s6,0
    800000a4:	00000b93          	li	s7,0
    800000a8:	00000c13          	li	s8,0
    800000ac:	00000c93          	li	s9,0
    800000b0:	00000d13          	li	s10,0
    800000b4:	00000d93          	li	s11,0
    800000b8:	00000e13          	li	t3,0
    800000bc:	00000e93          	li	t4,0
    800000c0:	00000f13          	li	t5,0
    800000c4:	00000f93          	li	t6,0
    800000c8:	f1402573          	csrr	a0,mhartid
    800000cc:	00051063          	bnez	a0,800000cc <reset_vector+0x80>
    800000d0:	00000297          	auipc	t0,0x0
    800000d4:	01028293          	addi	t0,t0,16 # 800000e0 <reset_vector+0x94>
    800000d8:	30529073          	csrw	mtvec,t0
    800000dc:	18005073          	csrwi	satp,0
    800000e0:	00000297          	auipc	t0,0x0
    800000e4:	02428293          	addi	t0,t0,36 # 80000104 <reset_vector+0xb8>
    800000e8:	30529073          	csrw	mtvec,t0
    800000ec:	0010029b          	addiw	t0,zero,1
    800000f0:	03529293          	slli	t0,t0,0x35
    800000f4:	fff28293          	addi	t0,t0,-1
    800000f8:	3b029073          	csrw	pmpaddr0,t0
    800000fc:	01f00293          	li	t0,31
    80000100:	3a029073          	csrw	pmpcfg0,t0
    80000104:	30405073          	csrwi	mie,0
    80000108:	00000297          	auipc	t0,0x0
    8000010c:	01428293          	addi	t0,t0,20 # 8000011c <reset_vector+0xd0>
    80000110:	30529073          	csrw	mtvec,t0
    80000114:	30205073          	csrwi	medeleg,0
    80000118:	30305073          	csrwi	mideleg,0
    8000011c:	00000193          	li	gp,0
    80000120:	00000297          	auipc	t0,0x0
    80000124:	ee428293          	addi	t0,t0,-284 # 80000004 <trap_vector>
    80000128:	30529073          	csrw	mtvec,t0
    8000012c:	00100513          	li	a0,1
    80000130:	01f51513          	slli	a0,a0,0x1f
    80000134:	00055c63          	bgez	a0,8000014c <reset_vector+0x100>
    80000138:	0ff0000f          	fence
    8000013c:	00100193          	li	gp,1
    80000140:	05d00893          	li	a7,93
    80000144:	00000513          	li	a0,0
    80000148:	00000073          	ecall
    8000014c:	80000297          	auipc	t0,0x80000
    80000150:	eb428293          	addi	t0,t0,-332 # 0 <_start-0x80000000>
    80000154:	00028a63          	beqz	t0,80000168 <reset_vector+0x11c>
    80000158:	10529073          	csrw	stvec,t0
    8000015c:	0000b2b7          	lui	t0,0xb
    80000160:	1092829b          	addiw	t0,t0,265
    80000164:	30229073          	csrw	medeleg,t0
    80000168:	30005073          	csrwi	mstatus,0
    8000016c:	00000297          	auipc	t0,0x0
    80000170:	01428293          	addi	t0,t0,20 # 80000180 <test_2>
    80000174:	34129073          	csrw	mepc,t0
    80000178:	f1402573          	csrr	a0,mhartid
    8000017c:	30200073          	mret

0000000080000180 <test_2>:
    80000180:	00200193          	li	gp,2
    80000184:	00000093          	li	ra,0
    80000188:	00000113          	li	sp,0
    8000018c:	0020d663          	ble	sp,ra,80000198 <test_2+0x18>
    80000190:	30301863          	bne	zero,gp,800004a0 <fail>
    80000194:	00301663          	bne	zero,gp,800001a0 <test_3>
    80000198:	fe20dee3          	ble	sp,ra,80000194 <test_2+0x14>
    8000019c:	30301263          	bne	zero,gp,800004a0 <fail>

00000000800001a0 <test_3>:
    800001a0:	00300193          	li	gp,3
    800001a4:	00100093          	li	ra,1
    800001a8:	00100113          	li	sp,1
    800001ac:	0020d663          	ble	sp,ra,800001b8 <test_3+0x18>
    800001b0:	2e301863          	bne	zero,gp,800004a0 <fail>
    800001b4:	00301663          	bne	zero,gp,800001c0 <test_4>
    800001b8:	fe20dee3          	ble	sp,ra,800001b4 <test_3+0x14>
    800001bc:	2e301263          	bne	zero,gp,800004a0 <fail>

00000000800001c0 <test_4>:
    800001c0:	00400193          	li	gp,4
    800001c4:	fff00093          	li	ra,-1
    800001c8:	fff00113          	li	sp,-1
    800001cc:	0020d663          	ble	sp,ra,800001d8 <test_4+0x18>
    800001d0:	2c301863          	bne	zero,gp,800004a0 <fail>
    800001d4:	00301663          	bne	zero,gp,800001e0 <test_5>
    800001d8:	fe20dee3          	ble	sp,ra,800001d4 <test_4+0x14>
    800001dc:	2c301263          	bne	zero,gp,800004a0 <fail>

00000000800001e0 <test_5>:
    800001e0:	00500193          	li	gp,5
    800001e4:	00100093          	li	ra,1
    800001e8:	00000113          	li	sp,0
    800001ec:	0020d663          	ble	sp,ra,800001f8 <test_5+0x18>
    800001f0:	2a301863          	bne	zero,gp,800004a0 <fail>
    800001f4:	00301663          	bne	zero,gp,80000200 <test_6>
    800001f8:	fe20dee3          	ble	sp,ra,800001f4 <test_5+0x14>
    800001fc:	2a301263          	bne	zero,gp,800004a0 <fail>

0000000080000200 <test_6>:
    80000200:	00600193          	li	gp,6
    80000204:	00100093          	li	ra,1
    80000208:	fff00113          	li	sp,-1
    8000020c:	0020d663          	ble	sp,ra,80000218 <test_6+0x18>
    80000210:	28301863          	bne	zero,gp,800004a0 <fail>
    80000214:	00301663          	bne	zero,gp,80000220 <test_7>
    80000218:	fe20dee3          	ble	sp,ra,80000214 <test_6+0x14>
    8000021c:	28301263          	bne	zero,gp,800004a0 <fail>

0000000080000220 <test_7>:
    80000220:	00700193          	li	gp,7
    80000224:	fff00093          	li	ra,-1
    80000228:	ffe00113          	li	sp,-2
    8000022c:	0020d663          	ble	sp,ra,80000238 <test_7+0x18>
    80000230:	26301863          	bne	zero,gp,800004a0 <fail>
    80000234:	00301663          	bne	zero,gp,80000240 <test_8>
    80000238:	fe20dee3          	ble	sp,ra,80000234 <test_7+0x14>
    8000023c:	26301263          	bne	zero,gp,800004a0 <fail>

0000000080000240 <test_8>:
    80000240:	00800193          	li	gp,8
    80000244:	00000093          	li	ra,0
    80000248:	00100113          	li	sp,1
    8000024c:	0020d463          	ble	sp,ra,80000254 <test_8+0x14>
    80000250:	00301463          	bne	zero,gp,80000258 <test_8+0x18>
    80000254:	24301663          	bne	zero,gp,800004a0 <fail>
    80000258:	fe20dee3          	ble	sp,ra,80000254 <test_8+0x14>

000000008000025c <test_9>:
    8000025c:	00900193          	li	gp,9
    80000260:	fff00093          	li	ra,-1
    80000264:	00100113          	li	sp,1
    80000268:	0020d463          	ble	sp,ra,80000270 <test_9+0x14>
    8000026c:	00301463          	bne	zero,gp,80000274 <test_9+0x18>
    80000270:	22301863          	bne	zero,gp,800004a0 <fail>
    80000274:	fe20dee3          	ble	sp,ra,80000270 <test_9+0x14>

0000000080000278 <test_10>:
    80000278:	00a00193          	li	gp,10
    8000027c:	ffe00093          	li	ra,-2
    80000280:	fff00113          	li	sp,-1
    80000284:	0020d463          	ble	sp,ra,8000028c <test_10+0x14>
    80000288:	00301463          	bne	zero,gp,80000290 <test_10+0x18>
    8000028c:	20301a63          	bne	zero,gp,800004a0 <fail>
    80000290:	fe20dee3          	ble	sp,ra,8000028c <test_10+0x14>

0000000080000294 <test_11>:
    80000294:	00b00193          	li	gp,11
    80000298:	ffe00093          	li	ra,-2
    8000029c:	00100113          	li	sp,1
    800002a0:	0020d463          	ble	sp,ra,800002a8 <test_11+0x14>
    800002a4:	00301463          	bne	zero,gp,800002ac <test_11+0x18>
    800002a8:	1e301c63          	bne	zero,gp,800004a0 <fail>
    800002ac:	fe20dee3          	ble	sp,ra,800002a8 <test_11+0x14>

00000000800002b0 <test_12>:
    800002b0:	00c00193          	li	gp,12
    800002b4:	00000213          	li	tp,0
    800002b8:	fff00093          	li	ra,-1
    800002bc:	00000113          	li	sp,0
    800002c0:	1e20d063          	ble	sp,ra,800004a0 <fail>
    800002c4:	00120213          	addi	tp,tp,1 # 1 <_start-0x7fffffff>
    800002c8:	00200293          	li	t0,2
    800002cc:	fe5216e3          	bne	tp,t0,800002b8 <test_12+0x8>

00000000800002d0 <test_13>:
    800002d0:	00d00193          	li	gp,13
    800002d4:	00000213          	li	tp,0
    800002d8:	fff00093          	li	ra,-1
    800002dc:	00000113          	li	sp,0
    800002e0:	00000013          	nop
    800002e4:	1a20de63          	ble	sp,ra,800004a0 <fail>
    800002e8:	00120213          	addi	tp,tp,1 # 1 <_start-0x7fffffff>
    800002ec:	00200293          	li	t0,2
    800002f0:	fe5214e3          	bne	tp,t0,800002d8 <test_13+0x8>

00000000800002f4 <test_14>:
    800002f4:	00e00193          	li	gp,14
    800002f8:	00000213          	li	tp,0
    800002fc:	fff00093          	li	ra,-1
    80000300:	00000113          	li	sp,0
    80000304:	00000013          	nop
    80000308:	00000013          	nop
    8000030c:	1820da63          	ble	sp,ra,800004a0 <fail>
    80000310:	00120213          	addi	tp,tp,1 # 1 <_start-0x7fffffff>
    80000314:	00200293          	li	t0,2
    80000318:	fe5212e3          	bne	tp,t0,800002fc <test_14+0x8>

000000008000031c <test_15>:
    8000031c:	00f00193          	li	gp,15
    80000320:	00000213          	li	tp,0
    80000324:	fff00093          	li	ra,-1
    80000328:	00000013          	nop
    8000032c:	00000113          	li	sp,0
    80000330:	1620d863          	ble	sp,ra,800004a0 <fail>
    80000334:	00120213          	addi	tp,tp,1 # 1 <_start-0x7fffffff>
    80000338:	00200293          	li	t0,2
    8000033c:	fe5214e3          	bne	tp,t0,80000324 <test_15+0x8>

0000000080000340 <test_16>:
    80000340:	01000193          	li	gp,16
    80000344:	00000213          	li	tp,0
    80000348:	fff00093          	li	ra,-1
    8000034c:	00000013          	nop
    80000350:	00000113          	li	sp,0
    80000354:	00000013          	nop
    80000358:	1420d463          	ble	sp,ra,800004a0 <fail>
    8000035c:	00120213          	addi	tp,tp,1 # 1 <_start-0x7fffffff>
    80000360:	00200293          	li	t0,2
    80000364:	fe5212e3          	bne	tp,t0,80000348 <test_16+0x8>

0000000080000368 <test_17>:
    80000368:	01100193          	li	gp,17
    8000036c:	00000213          	li	tp,0
    80000370:	fff00093          	li	ra,-1
    80000374:	00000013          	nop
    80000378:	00000013          	nop
    8000037c:	00000113          	li	sp,0
    80000380:	1220d063          	ble	sp,ra,800004a0 <fail>
    80000384:	00120213          	addi	tp,tp,1 # 1 <_start-0x7fffffff>
    80000388:	00200293          	li	t0,2
    8000038c:	fe5212e3          	bne	tp,t0,80000370 <test_17+0x8>

0000000080000390 <test_18>:
    80000390:	01200193          	li	gp,18
    80000394:	00000213          	li	tp,0
    80000398:	fff00093          	li	ra,-1
    8000039c:	00000113          	li	sp,0
    800003a0:	1020d063          	ble	sp,ra,800004a0 <fail>
    800003a4:	00120213          	addi	tp,tp,1 # 1 <_start-0x7fffffff>
    800003a8:	00200293          	li	t0,2
    800003ac:	fe5216e3          	bne	tp,t0,80000398 <test_18+0x8>

00000000800003b0 <test_19>:
    800003b0:	01300193          	li	gp,19
    800003b4:	00000213          	li	tp,0
    800003b8:	fff00093          	li	ra,-1
    800003bc:	00000113          	li	sp,0
    800003c0:	00000013          	nop
    800003c4:	0c20de63          	ble	sp,ra,800004a0 <fail>
    800003c8:	00120213          	addi	tp,tp,1 # 1 <_start-0x7fffffff>
    800003cc:	00200293          	li	t0,2
    800003d0:	fe5214e3          	bne	tp,t0,800003b8 <test_19+0x8>

00000000800003d4 <test_20>:
    800003d4:	01400193          	li	gp,20
    800003d8:	00000213          	li	tp,0
    800003dc:	fff00093          	li	ra,-1
    800003e0:	00000113          	li	sp,0
    800003e4:	00000013          	nop
    800003e8:	00000013          	nop
    800003ec:	0a20da63          	ble	sp,ra,800004a0 <fail>
    800003f0:	00120213          	addi	tp,tp,1 # 1 <_start-0x7fffffff>
    800003f4:	00200293          	li	t0,2
    800003f8:	fe5212e3          	bne	tp,t0,800003dc <test_20+0x8>

00000000800003fc <test_21>:
    800003fc:	01500193          	li	gp,21
    80000400:	00000213          	li	tp,0
    80000404:	fff00093          	li	ra,-1
    80000408:	00000013          	nop
    8000040c:	00000113          	li	sp,0
    80000410:	0820d863          	ble	sp,ra,800004a0 <fail>
    80000414:	00120213          	addi	tp,tp,1 # 1 <_start-0x7fffffff>
    80000418:	00200293          	li	t0,2
    8000041c:	fe5214e3          	bne	tp,t0,80000404 <test_21+0x8>

0000000080000420 <test_22>:
    80000420:	01600193          	li	gp,22
    80000424:	00000213          	li	tp,0
    80000428:	fff00093          	li	ra,-1
    8000042c:	00000013          	nop
    80000430:	00000113          	li	sp,0
    80000434:	00000013          	nop
    80000438:	0620d463          	ble	sp,ra,800004a0 <fail>
    8000043c:	00120213          	addi	tp,tp,1 # 1 <_start-0x7fffffff>
    80000440:	00200293          	li	t0,2
    80000444:	fe5212e3          	bne	tp,t0,80000428 <test_22+0x8>

0000000080000448 <test_23>:
    80000448:	01700193          	li	gp,23
    8000044c:	00000213          	li	tp,0
    80000450:	fff00093          	li	ra,-1
    80000454:	00000013          	nop
    80000458:	00000013          	nop
    8000045c:	00000113          	li	sp,0
    80000460:	0420d063          	ble	sp,ra,800004a0 <fail>
    80000464:	00120213          	addi	tp,tp,1 # 1 <_start-0x7fffffff>
    80000468:	00200293          	li	t0,2
    8000046c:	fe5212e3          	bne	tp,t0,80000450 <test_23+0x8>

0000000080000470 <test_24>:
    80000470:	00100093          	li	ra,1
    80000474:	0000da63          	bgez	ra,80000488 <test_24+0x18>
    80000478:	00108093          	addi	ra,ra,1
    8000047c:	00108093          	addi	ra,ra,1
    80000480:	00108093          	addi	ra,ra,1
    80000484:	00108093          	addi	ra,ra,1
    80000488:	00108093          	addi	ra,ra,1
    8000048c:	00108093          	addi	ra,ra,1
    80000490:	00300393          	li	t2,3
    80000494:	01800193          	li	gp,24
    80000498:	00709463          	bne	ra,t2,800004a0 <fail>
    8000049c:	02301063          	bne	zero,gp,800004bc <pass>

00000000800004a0 <fail>:
    800004a0:	0ff0000f          	fence
    800004a4:	00018063          	beqz	gp,800004a4 <fail+0x4>
    800004a8:	00119193          	slli	gp,gp,0x1
    800004ac:	0011e193          	ori	gp,gp,1
    800004b0:	05d00893          	li	a7,93
    800004b4:	00018513          	mv	a0,gp
    800004b8:	00000073          	ecall

00000000800004bc <pass>:
    800004bc:	0ff0000f          	fence
    800004c0:	00100193          	li	gp,1
    800004c4:	05d00893          	li	a7,93
    800004c8:	00000513          	li	a0,0
    800004cc:	00000073          	ecall
    800004d0:	c0001073          	unimp
    800004d4:	0000                	unimp
    800004d6:	0000                	unimp
    800004d8:	0000                	unimp
    800004da:	0000                	unimp
    800004dc:	0000                	unimp
    800004de:	0000                	unimp
    800004e0:	0000                	unimp
    800004e2:	0000                	unimp
    800004e4:	0000                	unimp
    800004e6:	0000                	unimp
    800004e8:	0000                	unimp
    800004ea:	0000                	unimp
    800004ec:	0000                	unimp
    800004ee:	0000                	unimp
    800004f0:	0000                	unimp
    800004f2:	0000                	unimp
    800004f4:	0000                	unimp
    800004f6:	0000                	unimp
    800004f8:	0000                	unimp
    800004fa:	0000                	unimp
    800004fc:	0000                	unimp
    800004fe:	0000                	unimp
    80000500:	0000                	unimp
    80000502:	0000                	unimp
