
rv64si-p-ma_fetch:     file format elf64-littleriscv


Disassembly of section .text.init:

0000000080000000 <_start>:
    80000000:	04c0006f          	j	8000004c <reset_vector>

0000000080000004 <trap_vector>:
    80000004:	34202f73          	csrr	t5,mcause
    80000008:	00800f93          	li	t6,8
    8000000c:	03ff0a63          	beq	t5,t6,80000040 <write_tohost>
    80000010:	00900f93          	li	t6,9
    80000014:	03ff0663          	beq	t5,t6,80000040 <write_tohost>
    80000018:	00b00f93          	li	t6,11
    8000001c:	03ff0263          	beq	t5,t6,80000040 <write_tohost>
    80000020:	80000f17          	auipc	t5,0x80000
    80000024:	fe0f0f13          	addi	t5,t5,-32 # 0 <_start-0x80000000>
    80000028:	000f0463          	beqz	t5,80000030 <trap_vector+0x2c>
    8000002c:	000f0067          	jr	t5
    80000030:	34202f73          	csrr	t5,mcause
    80000034:	000f5463          	bgez	t5,8000003c <handle_exception>
    80000038:	0040006f          	j	8000003c <handle_exception>

000000008000003c <handle_exception>:
    8000003c:	5391e193          	ori	gp,gp,1337

0000000080000040 <write_tohost>:
    80000040:	00001f17          	auipc	t5,0x1
    80000044:	fc3f2023          	sw	gp,-64(t5) # 80001000 <tohost>
    80000048:	ff9ff06f          	j	80000040 <write_tohost>

000000008000004c <reset_vector>:
    8000004c:	00000093          	li	ra,0
    80000050:	00000113          	li	sp,0
    80000054:	00000193          	li	gp,0
    80000058:	00000213          	li	tp,0
    8000005c:	00000293          	li	t0,0
    80000060:	00000313          	li	t1,0
    80000064:	00000393          	li	t2,0
    80000068:	00000413          	li	s0,0
    8000006c:	00000493          	li	s1,0
    80000070:	00000513          	li	a0,0
    80000074:	00000593          	li	a1,0
    80000078:	00000613          	li	a2,0
    8000007c:	00000693          	li	a3,0
    80000080:	00000713          	li	a4,0
    80000084:	00000793          	li	a5,0
    80000088:	00000813          	li	a6,0
    8000008c:	00000893          	li	a7,0
    80000090:	00000913          	li	s2,0
    80000094:	00000993          	li	s3,0
    80000098:	00000a13          	li	s4,0
    8000009c:	00000a93          	li	s5,0
    800000a0:	00000b13          	li	s6,0
    800000a4:	00000b93          	li	s7,0
    800000a8:	00000c13          	li	s8,0
    800000ac:	00000c93          	li	s9,0
    800000b0:	00000d13          	li	s10,0
    800000b4:	00000d93          	li	s11,0
    800000b8:	00000e13          	li	t3,0
    800000bc:	00000e93          	li	t4,0
    800000c0:	00000f13          	li	t5,0
    800000c4:	00000f93          	li	t6,0
    800000c8:	f1402573          	csrr	a0,mhartid
    800000cc:	00051063          	bnez	a0,800000cc <reset_vector+0x80>
    800000d0:	00000297          	auipc	t0,0x0
    800000d4:	01028293          	addi	t0,t0,16 # 800000e0 <reset_vector+0x94>
    800000d8:	30529073          	csrw	mtvec,t0
    800000dc:	18005073          	csrwi	satp,0
    800000e0:	00000297          	auipc	t0,0x0
    800000e4:	02428293          	addi	t0,t0,36 # 80000104 <reset_vector+0xb8>
    800000e8:	30529073          	csrw	mtvec,t0
    800000ec:	0010029b          	addiw	t0,zero,1
    800000f0:	03529293          	slli	t0,t0,0x35
    800000f4:	fff28293          	addi	t0,t0,-1
    800000f8:	3b029073          	csrw	pmpaddr0,t0
    800000fc:	01f00293          	li	t0,31
    80000100:	3a029073          	csrw	pmpcfg0,t0
    80000104:	30405073          	csrwi	mie,0
    80000108:	00000297          	auipc	t0,0x0
    8000010c:	01428293          	addi	t0,t0,20 # 8000011c <reset_vector+0xd0>
    80000110:	30529073          	csrw	mtvec,t0
    80000114:	30205073          	csrwi	medeleg,0
    80000118:	30305073          	csrwi	mideleg,0
    8000011c:	00000193          	li	gp,0
    80000120:	00000297          	auipc	t0,0x0
    80000124:	ee428293          	addi	t0,t0,-284 # 80000004 <trap_vector>
    80000128:	30529073          	csrw	mtvec,t0
    8000012c:	00100513          	li	a0,1
    80000130:	01f51513          	slli	a0,a0,0x1f
    80000134:	00055c63          	bgez	a0,8000014c <reset_vector+0x100>
    80000138:	0ff0000f          	fence
    8000013c:	00100193          	li	gp,1
    80000140:	05d00893          	li	a7,93
    80000144:	00000513          	li	a0,0
    80000148:	00000073          	ecall
    8000014c:	00000297          	auipc	t0,0x0
    80000150:	11c28293          	addi	t0,t0,284 # 80000268 <stvec_handler>
    80000154:	00028a63          	beqz	t0,80000168 <reset_vector+0x11c>
    80000158:	10529073          	csrw	stvec,t0
    8000015c:	0000b2b7          	lui	t0,0xb
    80000160:	1092829b          	addiw	t0,t0,265
    80000164:	30229073          	csrw	medeleg,t0
    80000168:	30005073          	csrwi	mstatus,0
    8000016c:	00001537          	lui	a0,0x1
    80000170:	8005051b          	addiw	a0,a0,-2048
    80000174:	30052073          	csrs	mstatus,a0
    80000178:	02200513          	li	a0,34
    8000017c:	30352073          	csrs	mideleg,a0
    80000180:	00000297          	auipc	t0,0x0
    80000184:	01428293          	addi	t0,t0,20 # 80000194 <reset_vector+0x148>
    80000188:	34129073          	csrw	mepc,t0
    8000018c:	f1402573          	csrr	a0,mhartid
    80000190:	30200073          	mret
    80000194:	00200193          	li	gp,2
    80000198:	00000313          	li	t1,0
    8000019c:	00000297          	auipc	t0,0x0
    800001a0:	00c28293          	addi	t0,t0,12 # 800001a8 <reset_vector+0x15c>
    800001a4:	00228367          	jalr	t1,2(t0)
    800001a8:	a011                	j	800001ac <reset_vector+0x160>
    800001aa:	a019                	j	800001b0 <reset_vector+0x164>
    800001ac:	08c0006f          	j	80000238 <fail>
    800001b0:	00300193          	li	gp,3
    800001b4:	00000297          	auipc	t0,0x0
    800001b8:	00c28293          	addi	t0,t0,12 # 800001c0 <reset_vector+0x174>
    800001bc:	00128367          	jalr	t1,1(t0)
    800001c0:	0080006f          	j	800001c8 <reset_vector+0x17c>
    800001c4:	0740006f          	j	80000238 <fail>
    800001c8:	00400193          	li	gp,4
    800001cc:	00000313          	li	t1,0
    800001d0:	00000297          	auipc	t0,0x0
    800001d4:	00c28293          	addi	t0,t0,12 # 800001dc <reset_vector+0x190>
    800001d8:	00328367          	jalr	t1,3(t0)
    800001dc:	a011                	j	800001e0 <reset_vector+0x194>
    800001de:	a019                	j	800001e4 <reset_vector+0x198>
    800001e0:	0580006f          	j	80000238 <fail>
    800001e4:	00500193          	li	gp,5
    800001e8:	00000313          	li	t1,0
    800001ec:	00000297          	auipc	t0,0x0
    800001f0:	00c28293          	addi	t0,t0,12 # 800001f8 <reset_vector+0x1ac>
    800001f4:	0060036f          	jal	t1,800001fa <reset_vector+0x1ae>
    800001f8:	a011                	j	800001fc <reset_vector+0x1b0>
    800001fa:	a019                	j	80000200 <reset_vector+0x1b4>
    800001fc:	03c0006f          	j	80000238 <fail>
    80000200:	00600193          	li	gp,6
    80000204:	00000313          	li	t1,0
    80000208:	00000297          	auipc	t0,0x0
    8000020c:	00c28293          	addi	t0,t0,12 # 80000214 <reset_vector+0x1c8>
    80000210:	00000363          	beqz	zero,80000216 <reset_vector+0x1ca>
    80000214:	a011                	j	80000218 <reset_vector+0x1cc>
    80000216:	a019                	j	8000021c <reset_vector+0x1d0>
    80000218:	0200006f          	j	80000238 <fail>
    8000021c:	00700193          	li	gp,7
    80000220:	00001563          	bnez	zero,8000022a <reset_vector+0x1de>
    80000224:	00c0006f          	j	80000230 <reset_vector+0x1e4>
    80000228:	a009                	j	8000022a <reset_vector+0x1de>
    8000022a:	a009                	j	8000022c <reset_vector+0x1e0>
    8000022c:	00c0006f          	j	80000238 <fail>
    80000230:	0240006f          	j	80000254 <pass>
    80000234:	02301063          	bne	zero,gp,80000254 <pass>

0000000080000238 <fail>:
    80000238:	0ff0000f          	fence
    8000023c:	00018063          	beqz	gp,8000023c <fail+0x4>
    80000240:	00119193          	slli	gp,gp,0x1
    80000244:	0011e193          	ori	gp,gp,1
    80000248:	05d00893          	li	a7,93
    8000024c:	00018513          	mv	a0,gp
    80000250:	00000073          	ecall

0000000080000254 <pass>:
    80000254:	0ff0000f          	fence
    80000258:	00100193          	li	gp,1
    8000025c:	05d00893          	li	a7,93
    80000260:	00000513          	li	a0,0
    80000264:	00000073          	ecall

0000000080000268 <stvec_handler>:
    80000268:	00200513          	li	a0,2
    8000026c:	02a18063          	beq	gp,a0,8000028c <stvec_handler+0x24>
    80000270:	00400513          	li	a0,4
    80000274:	00a18c63          	beq	gp,a0,8000028c <stvec_handler+0x24>
    80000278:	00500513          	li	a0,5
    8000027c:	00a18863          	beq	gp,a0,8000028c <stvec_handler+0x24>
    80000280:	00600513          	li	a0,6
    80000284:	00a18463          	beq	gp,a0,8000028c <stvec_handler+0x24>
    80000288:	fb1ff06f          	j	80000238 <fail>
    8000028c:	fa0316e3          	bnez	t1,80000238 <fail>
    80000290:	00000593          	li	a1,0
    80000294:	14202573          	csrr	a0,scause
    80000298:	fab510e3          	bne	a0,a1,80000238 <fail>
    8000029c:	141025f3          	csrr	a1,sepc
    800002a0:	00458593          	addi	a1,a1,4
    800002a4:	f8b29ae3          	bne	t0,a1,80000238 <fail>
    800002a8:	14302573          	csrr	a0,sbadaddr
    800002ac:	00050663          	beqz	a0,800002b8 <stvec_handler+0x50>
    800002b0:	ffe50513          	addi	a0,a0,-2 # ffe <_start-0x7ffff002>
    800002b4:	f85512e3          	bne	a0,t0,80000238 <fail>
    800002b8:	00c58593          	addi	a1,a1,12
    800002bc:	14159073          	csrw	sepc,a1
    800002c0:	10200073          	sret
    800002c4:	c0001073          	unimp
    800002c8:	0000                	unimp
    800002ca:	0000                	unimp
    800002cc:	0000                	unimp
    800002ce:	0000                	unimp
    800002d0:	0000                	unimp
    800002d2:	0000                	unimp
    800002d4:	0000                	unimp
    800002d6:	0000                	unimp
    800002d8:	0000                	unimp
    800002da:	0000                	unimp
    800002dc:	0000                	unimp
    800002de:	0000                	unimp
    800002e0:	0000                	unimp
    800002e2:	0000                	unimp
    800002e4:	0000                	unimp
    800002e6:	0000                	unimp
    800002e8:	0000                	unimp
    800002ea:	0000                	unimp
    800002ec:	0000                	unimp
    800002ee:	0000                	unimp
    800002f0:	0000                	unimp
    800002f2:	0000                	unimp
    800002f4:	0000                	unimp
    800002f6:	0000                	unimp
    800002f8:	0000                	unimp
    800002fa:	0000                	unimp
    800002fc:	0000                	unimp
    800002fe:	0000                	unimp
    80000300:	0000                	unimp
    80000302:	0000                	unimp
